:020000040800F2
:1040000000000120A56200080161000803610008AA
:104010000561000807610008096100080000000050
:104020000000000000000000000000000B6100081C
:104030000D610008000000000F6100081161000818
:10404000F5620008F5620008F5620008F5620008F4
:10405000F5620008F5620008F5620008F5620008E4
:10406000F5620008F5620008F562000819610008B1
:10407000F5620008F562000829610008396100084E
:104080004961000859610008F5620008F5620008FE
:10409000F5620008F5620008F56200086961000831
:1040A000F562000875610008F56200088561000886
:1040B000F56200080000000000000000F562000842
:1040C000F5620008F5620008F5620008F562000874
:1040D000F562000895610008AD610008F56200080E
:1040E000C5610008F5620008000000000000000043
:1040F00000000000000000000000000000000000C0
:1041000000000000F562000800000000F5620008F1
:104110000000000000000000E1610008F1610008FB
:10412000F5620008F5620008F5620008F562000813
:10413000F562000800000000000000000000000020
:10414000F5620008F5620008F56200080000000052
:10415000F5620008F5620008F5620008F5620008E3
:1041600001620008F5620008F56200080000000026
:10417000F5620008F5620008000000000000000081
:10418000F5620008F5620008F56200080000000012
:10419000000000000000000000000000000000001F
:1041A000000000000000000000000000000000000F
:1041B00000000000000000000000000000000000FF
:1041C00000000000000000000000000000000000EF
:1041D00000000000000000000000000000000000DF
:1041E00000000000000000000000000000000000CF
:1041F00000000000000000000000000000000000BF
:104200003504000000081600FFFFFFFFFFFFFFFF5F
:1042100010B5054C237833B9044B13B10448AFF300
:1042200000800123237010BD000300200000000067
:10423000100A010808B5034B1BB103490348AFF34B
:10424000008008BD0000000004030020100A0108DF
:1042500010F8012B11F8013B012A28BF9A42F7D030
:10426000D01A7047034613F8012B002AFBD1181A05
:10427000013870470000000000000000000000004E
:1042800001F0FF01102A2BDB10F0070F08D010F807
:10429000013B013A8B422DD010F0070F42B3F6D10B
:1042A000F0B441EA012141EA014122F007047FF024
:1042B00000070023F0E80256083C85EA010586EA7B
:1042C000010685FA47F5A3FA87F586FA47F6A5FAB7
:1042D00087F68EB9EED1F0BC01F0FF0102F00702C3
:1042E00032B110F8013B013A83EA010313B1F8D16E
:1042F0000020704701387047002D06BF354603384F
:10430000073815F0010F07D1013015F4807F02BF87
:10431000013015F4C03F0130F0BC0138704700BFD8
:1043200081F0004102E000BF83F0004330B54FEA66
:1043300041044FEA430594EA050F08BF90EA020FD3
:104340001FBF54EA000C55EA020C7FEA645C7FEA66
:10435000655C00F0E2804FEA5454D4EB5555B8BF89
:104360006D420CDD2C4480EA020281EA030382EAFA
:10437000000083EA010180EA020281EA0303362D8C
:1043800088BF30BD11F0004F4FEA01314FF4801C5F
:104390004CEA113102D0404261EB410113F0004F71
:1043A0004FEA03334CEA133302D0524263EB430328
:1043B00094EA050F00F0A780A4F10104D5F1200EC6
:1043C0000DDB02FA0EFC22FA05F2801841F1000121
:1043D00003FA0EF2801843FA05F359410EE0A5F1F5
:1043E00020050EF1200E012A03FA0EFC28BF4CF026
:1043F000020C43FA05F3C01851EBE37101F00045DC
:1044000007D54FF0000EDCF1000C7EEB00006EEBE8
:104410000101B1F5801F1BD3B1F5001F0CD3490872
:104420005FEA30004FEA3C0C04F101044FEA4452C9
:1044300012F5800F80F09A80BCF1004F08BF5FEA50
:10444000500C50F1000041EB045141EA050130BD30
:104450005FEA4C0C404141EB0101013C28BFB1F542
:10446000801FE9D291F0000F04BF01460020B1FA8D
:1044700081F308BF2033A3F10B03B3F120020CDA60
:104480000C3208DD02F1140CC2F10C0201FA0CF03E
:1044900021FA02F10CE002F11402D8BFC2F1200CA3
:1044A00001FA02F120FA0CFCDCBF41EA0C01904059
:1044B000E41AA2BF01EB0451294330BD6FEA0404A2
:1044C0001F3C1CDA0C340EDC04F11404C4F120028D
:1044D00020FA04F001FA02F340EA030021FA04F39F
:1044E00045EA030130BDC4F10C04C4F1200220FAF6
:1044F00002F001FA04F340EA0300294630BD21FA34
:1045000004F0294630BD94F0000F83F4801306BFF9
:1045100081F480110134013D4EE77FEA645C18BFED
:104520007FEA655C29D094EA050F08BF90EA020F84
:1045300005D054EA000C04BF1946104630BD91EA7C
:10454000030F1EBF0021002030BD5FEA545C05D17F
:104550004000494128BF41F0004130BD14F58004BE
:104560003CBF01F5801130BD01F0004545F0FE4132
:1045700041F470014FF0000030BD7FEA645C1ABF67
:10458000194610467FEA655C1CBF0B46024650EA9E
:10459000013406BF52EA033591EA030F41F40021CA
:1045A00030BD00BF90F0000F04BF0021704730B550
:1045B0004FF4806404F132044FF000054FF0000125
:1045C00050E700BF90F0000F04BF0021704730B5E6
:1045D0004FF4806404F1320410F0004548BF4042BB
:1045E0004FF000013EE700BF42004FEAE2014FEA10
:1045F00031014FEA02701FBF12F07F4393F07F4FEB
:1046000081F06051704732F07F4208BF704793F0ED
:104610007F4F04BF41F40021704730B54FF4607400
:1046200001F0004521F000411CE700BF50EA010203
:1046300008BF704730B54FF000050AE050EA0102AC
:1046400008BF704730B511F0004502D5404261EB1C
:1046500041014FF4806404F132045FEA915C3FF45D
:10466000D8AE4FF003025FEADC0C18BF03325FEAFA
:10467000DC0C18BF033202EBDC02C2F1200300FAAB
:1046800003FC20FA02F001FA03FE40EA0E0021FAD0
:1046900002F11444BDE600BF70B54FF0FF0C4CF4BE
:1046A000E06C1CEA11541DBF1CEA135594EA0C0F70
:1046B00095EA0C0F00F0DEF82C4481EA030621EAAB
:1046C0004C5123EA4C5350EA013518BF52EA0335E6
:1046D00041F4801143F4801338D0A0FB02CE4FF098
:1046E0000005E1FB02E506F00042E0FB03E54FF0C8
:1046F0000006E1FB03569CF0000F18BF4EF0010EC0
:10470000A4F1FF04B6F5007F64F5407404D25FEABB
:104710004E0E6D4146EB060642EAC62141EA55516E
:104720004FEAC52040EA5E504FEACE2EB4F1FD0CB0
:1047300088BFBCF5E06F1ED8BEF1004F08BF5FEA2E
:10474000500E50F1000041EB045170BD06F00046E0
:1047500046EA010140EA020081EA0301B4EB5C048D
:10476000C2BFD4EB0C0541EA045170BD41F4801185
:104770004FF0000E013C00F3AB8014F1360FDEBFAA
:10478000002001F0004170BDC4F10004203C35DA86
:104790000C341BDC04F11404C4F1200500FA05F309
:1047A00020FA04F001FA05F240EA020001F00042AA
:1047B00021F0004110EBD37021FA04F642EB060120
:1047C0005EEA430E08BF20EAD37070BDC4F10C044A
:1047D000C4F1200500FA04F320FA05F001FA04F20E
:1047E00040EA020001F0004110EBD37041F10001FA
:1047F0005EEA430E08BF20EAD37070BDC4F1200505
:1048000000FA05F24EEA020E20FA04F301FA05F26C
:1048100043EA020321FA04F001F0004121FA04F214
:1048200020EA020000EBD3705EEA430E08BF20EAE4
:10483000D37070BD94F0000F0FD101F0004640001E
:1048400041EB010111F4801F08BF013CF7D041EAA0
:10485000060195F0000F18BF704703F000465200A4
:1048600043EB030313F4801F08BF013DF7D043EA75
:104870000603704794EA0C0F0CEA135518BF95EA2B
:104880000C0F0CD050EA410618BF52EA4306D1D1B2
:1048900081EA030101F000414FF0000070BD50EAD1
:1048A000410606BF1046194652EA430619D094EA5B
:1048B0000C0F02D150EA013613D195EA0C0F05D145
:1048C00052EA03361CBF104619460AD181EA030199
:1048D00001F0004141F0FE4141F470014FF0000051
:1048E00070BD41F0FE4141F4780170BD70B54FF0EC
:1048F000FF0C4CF4E06C1CEA11541DBF1CEA13556C
:1049000094EA0C0F95EA0C0F00F0A7F8A4EB05044D
:1049100081EA030E52EA03354FEA013100F0888044
:104920004FEA03334FF0805545EA131343EA12630D
:104930004FEA022245EA111545EA10654FEA0026C2
:104940000EF000419D4208BF964244F1FD0404F57B
:10495000407402D25B084FEA3202B61A65EB0305D7
:104960005B084FEA32024FF480104FF4002CB6EB94
:10497000020E75EB030E22BFB61A754640EA0C0014
:104980005B084FEA3202B6EB020E75EB030E22BF54
:10499000B61A754640EA5C005B084FEA3202B6EB95
:1049A000020E75EB030E22BFB61A754640EA9C0054
:1049B0005B084FEA3202B6EB020E75EB030E22BF24
:1049C000B61A754640EADC0055EA060E18D04FEAE2
:1049D000051545EA16754FEA06164FEAC30343EA82
:1049E00052734FEAC2025FEA1C1CC0D111F4801F4F
:1049F0000BD141EA00014FF000004FF0004CB6E748
:104A000011F4801F04BF01430020B4F1FD0C88BFE6
:104A1000BCF5E06F3FF6AFAEB5EB030C04BFB6EBF1
:104A2000020C5FEA500C50F1000041EB045170BDE4
:104A30000EF0004E4EEA113114EB5C04C2BFD4EB11
:104A40000C0541EA045170BD41F480114FF0000E95
:104A5000013C90E645EA060E8DE60CEA135594EA11
:104A60000C0F08BF95EA0C0F3FF43BAF94EA0C0F14
:104A70000AD150EA01347FF434AF95EA0C0F7FF489
:104A800025AF104619462CE795EA0C0F06D152EADD
:104A900003353FF4FDAE1046194622E750EA4106C1
:104AA00018BF52EA43067FF4C5AE50EA41047FF4D2
:104AB0000DAF52EA43057FF4EBAE12E74FEA410235
:104AC00012F5001215D211D56FF47873B3EB625260
:104AD00012D94FEAC12343F0004343EA505311F087
:104AE000004F23FA02F018BF404270474FF0000019
:104AF000704750EA013005D111F0004008BF6FF057
:104B0000004070474FF00000704700BF4A0011D2CC
:104B100012F5001211D20DD56FF47873B3EB625217
:104B20000ED44FEAC12343F0004343EA505323FA23
:104B300002F070474FF00000704750EA013002D198
:104B40004FF0FF3070474FF0000070474FEA4102CE
:104B5000B2F1E04324BFB3F5001CDCF1FE5C0DD9DB
:104B600001F0004C4FEAC0024CEA5070B2F1004F25
:104B700040EB830008BF20F00100704711F0804F28
:104B800021D113F13872BCBF01F00040704741F4ED
:104B900080114FEA5252C2F11802C2F1200C10FAF1
:104BA0000CF320FA02F018BF40F001004FEAC123D5
:104BB0004FEAD32303FA0CFC40EA0C0023FA02F379
:104BC0004FEA4303CCE77FEA625307D150EA01334F
:104BD0001EBF4FF0FE4040F44000704701F000401F
:104BE00040F0FE4040F40000704700BF53B94AB99E
:104BF000002908BF00281CBF4FF0FF314FF0FF30E5
:104C000000F06EB9ADF1080C6DE904CE00F006F8C5
:104C1000DDF804E0DDE9022304B070472DE9F04738
:104C2000089D04468C46002B40F083808A4217463C
:104C300047D9B2FA82F242B1C2F1200024FA00F060
:104C40009140974040EA010C94404FEA1748230CEA
:104C5000BCFBF8F61FFA87FE08FB16C143EA0143C6
:104C600006FB0EF1994209D9FB1806F1FF3080F0DE
:104C70001981994240F21681023E3B445B1AA4B26C
:104C8000B3FBF8F008FB103344EA034400FB0EFECC
:104C9000A64509D93C1900F1FF3380F00581A645EE
:104CA00040F2028102383C4440EA0640A4EB0E0484
:104CB00000261DB1D4400023C5E900433146BDE8BC
:104CC000F08702B9FFDEB2FA82F2002A50D1CB1B84
:104CD0004FEA174E1FFA87F80126B3FBFEFC210CA2
:104CE0000EFB1C3341EA034108FB0CF38B4207D94E
:104CF00079180CF1FF3002D28B4200F2E980844631
:104D0000C91AA3B2B1FBFEF00EFB101143EA014435
:104D100008FB00F8A04507D93C1900F1FF3302D287
:104D2000A04500F2D9801846A4EB080440EA0C40E4
:104D3000BFE78B4209D9002D00F0B1800026C5E9FC
:104D4000000130463146BDE8F087B3FA83F6002E05
:104D50004AD18B4202D3824200F2B880841A61EBBE
:104D6000030101208C46002DA8D0C5E9004CA5E721
:104D7000C2F1200320FA03F6974001FA02F04FEA4D
:104D8000174ED9403043030CB1FBFEF61FFA87F8EB
:104D90000EFB161143EA014306FB08F1994204FA9F
:104DA00002F409D9FB1806F1FF3C80F08D8099428E
:104DB00040F28A80023E3B445B1A81B2B3FBFEF0B4
:104DC0000EFB103341EA034100FB08F38B4207D985
:104DD000791800F1FF3C73D28B4271D90238394403
:104DE000CB1A40EA064678E7C6F1200C03FA06F42F
:104DF00022FA0CF31C4320FA0CF701FA06F34FEAEF
:104E0000144E21FA0CF11F433B0CB1FBFEF91FFAC3
:104E100084F80EFB191143EA014109FB08FA8A459F
:104E200002FA06F200FA06F308D9611809F1FF3018
:104E300048D28A4546D9A9F102092144A1EB0A01C9
:104E4000BFB2B1FBFEF00EFB101147EA014700FBB9
:104E500008F8B84507D9E71900F1FF312ED2B84557
:104E60002CD90238274440EA0940A7EB0807A0FBE9
:104E700002894F45C64649461AD317D05DB1B3EBF8
:104E80000E0267EB010707FA0CFCF2404CEA020243
:104E9000F740C5E9002700263146BDE8F0872E46D9
:104EA00028460BE70646E9E61846FDE64345E5D207
:104EB000B8EB020E69EB04010138DFE70846D2E7E0
:104EC00060468DE78146B9E7664675E730464AE7B2
:104ED000ACF1020C394413E702383C4424E700BF2C
:104EE000704700BF08B520214FF0904002F0C2FA91
:104EF000012801D0002008BD0120FCE7F0B589B0F1
:104F0000002403940494059406940794444BDA6CAB
:104F100042F00402DA64DA6C02F004020092009AB1
:104F2000DA6C42F00102DA64DA6C02F001020192FA
:104F3000019ADA6C42F00202DA64DB6C03F00203DD
:104F40000293029B374F22464FF40051384602F03D
:104F500098FA22464FF4C2514FF0904002F091FA75
:104F6000314D22464AF26601284602F08AFA4FF491
:104F700000530393012604960594069403A938462A
:104F800002F028F9202303930494059403A94FF019
:104F9000904002F01FF94FF4C25303930496059416
:104FA000069403A94FF0904002F014F94AF2660308
:104FB000039304960594069403A9284602F00AF97F
:104FC0004FF4A8530393194B0493059403A928465F
:104FD00002F000F94FF4286303930494059403A9A5
:104FE000284602F0F7F84FF480430393104B0493E4
:104FF000059403A9284602F0EDF822462146172021
:1050000001F088FE172001F0B9FE22462146282033
:1050100001F080FE282001F0B1FE09B0F0BD00BF14
:105020000010024000080048000400480000111071
:105030000000311000B583B01A4B9A6C42F00102A7
:105040009A649B6C03F001030193019B00221146BB
:105050000B2001F05FFE0B2001F090FE00221146B4
:105060000E2001F057FE0E2001F088FE00221146AE
:105070000F2001F04FFE0F2001F080FE00221146AC
:10508000102001F047FE102001F078FE00221146AA
:10509000112001F03FFE112001F070FE03B05DF819
:1050A00004FB00BF0010024008B50848084B03602D
:1050B000002343607F228260FF22C260036143615C
:1050C0008361C36103F0C4FD08BD00BFB4070020C5
:1050D0000028004038B50D4C0D4B23600D4B63602C
:1050E0000025A5600123E36025616561A561E56197
:1050F0002562204602F04EFB2946204602F05CFD68
:105100002946204602F086FD38BD00BF5807002022
:10511000005C0040EC9C901008B50948094B036006
:105120004FF41653436000238360C36003610C2275
:1051300042618361C3610362436205F00DF808BDFB
:10514000080900200038014008B50948094B0360F0
:105150004FF4E133436000238360C36003610C229A
:1051600042618361C3610362436204F0F5FF08BDDD
:10517000880900200044004070B586B000250095E5
:10518000019502950395049505952A4C2A4B2360B9
:105190006560A560E56001232361082363612576CE
:1051A00065760626E66184F82050A562E56284F8FB
:1051B0003050656384F83850204601F0DBF81F4B0F
:1051C00000930196072302937F2303930423049300
:1051D00005956946204601F011FA194B00930C23FE
:1051E00001936946204601F009FA164B00931223F9
:1051F00001936946204601F001FA134B00931823EE
:1052000001936946204601F0F9F9104B00934FF4E1
:10521000807301936946204601F0F0F90C4B00932E
:105220004FF4837301936946204601F0E7F906B015
:1052300070BD00BF8C050020000004502000F01459
:10524000400020190002B0250080F03E000052C747
:105250000100008030B589B00024049405940694C0
:1052600007940194029403940F4D4FF080432B60F8
:1052700050236B60AC604FF0FF33EB602C618023F8
:10528000AB61284603F0A0FF4FF48053049304A9B8
:10529000284604F0D5F80194039401A9284604F0A7
:1052A00009FA09B030BD00BF2408002030B585B030
:1052B00000250195029503950A4C0B4B2360502362
:1052C0006360A560FA23E3608023A361204603F0B6
:1052D0007BFF0195039501A9204604F0EBF905B089
:1052E00030BD00BF700800200010004030B585B010
:1052F00000250195029503950A4C0B4B2360502322
:105300006360A5604FF47A73E3608023A361204655
:1053100003F05AFF0195039501A9204604F0CAF94C
:1053200005B030BDBC0800200014004030B59BB073
:1053300000241694179418941994139414941594A3
:105340000C940D940E940F941094119412942C229A
:10535000214601A80AF02CFF224D234B2B6050233D
:105360006B60AC604FF47A73EB602C616C618023EE
:10537000AB61284603F028FF4FF48053169316A91B
:10538000284604F05DF8284603F04EFF1394149469
:10539000159413A9284604F08DF960230C930D94FD
:1053A0000E940F9410941194129422460CA928463E
:1053B00003F0A6FF019402940394049405944FF41F
:1053C00000530693079408944FF0007309930A94CE
:1053D0000B9401A9284604F0A5F9284600F050FDD9
:1053E0001BB030BDD8070020002C014008B506488E
:1053F000064B03600023436040F6FF73C360836085
:1054000002F034FC08BD00BFA407002000300040BB
:1054100008B58021034802F02DF8012800D00020B3
:1054200008BD00BF000400482DE9F041AEB02422C1
:1054300000211EA80AF0BCFE0024189419941A94A6
:105440001B941C945C22214601A80AF0B1FE4FF087
:105450001808CDF8748001252295239560232593A3
:10546000022627962895299528232A9307272B97E4
:105470002C962D961DA802F02DFD0F2318930323C3
:1054800019931A941B941C94042118A803F062F831
:105490000E4B019309940A940F944FF08053159387
:1054A0004FF40074179402950395CDF8108005977A
:1054B000069607964FF08073089301A803F0D8F979
:1054C000204602F01DFC2EB0BDE8F0810341020031
:1054D0002DE9F04782B0C54BD3F8942002F07F420B
:1054E000C3490A60D3F8942042F40002C3F8942020
:1054F0009A6D42F080529A659B6D03F08053019340
:10550000019B02F0E5FBBB4BD3F8CC200021C3F894
:10551000CC10AA2A00F0E28102F0E2FB0AF08AFA3B
:105520000AF048FA00F010FFFFF77EFFFFF7E6FCF5
:10553000FFF780FDFFF7B8FDFFF7CCFDFFF7ECFDAF
:10554000FFF702FEFFF718FEFFF7F0FEFFF782FEFF
:10555000FFF7ACFEFFF7CAFEFFF748FF01224FF44A
:105560000051A54801F08DFFFFF752FFA34A1070CC
:10557000002009F015F8F0B1A04B1B78002B40F08B
:10558000B9819F4B9F4A116855689468D0685960EB
:105590009D60DC60186111695961994B9A4A1068E5
:1055A00051689861D96112891A84984A12681A6000
:1055B00000225A715A760422944991480AF0DCFD7F
:1055C00090B38E4B1B78002B40F0A1818C4B8D4A01
:1055D000116855689468D06859609D60DC601861F6
:1055E000116959618648884B19685A688161C2619E
:1055F0001B890384854B1B6803600023437143763A
:105600002A2109F089F88248824B19685A689D68F6
:10561000DC68016042608560C46019695A69016193
:105620004261182109F0DAF9012008F0B9FF0220DF
:1056300008F0B6FF032008F0B3FF80B1744B754A41
:10564000156851689468D0681D6059609C60D86086
:105650005169596100221A745A749A74DA74684B49
:105660001B79022B00F060816B4B5A686B4B1A6000
:10567000042008F095FF50B1694B6A4A516892685E
:1056800059609A6000221A705A709A70DA70644BEE
:105690009A88654B1A8008F0CFFE0024634B1C707B
:1056A00008F0CAFD624E304605F032FD3471614BA0
:1056B0001C70614B1C70614B1C70614B1C70DFF8DF
:1056C000389122464FF40041484601F0DAFE5D4B26
:1056D0001C705D4B1E221A6032275C4B1F605C4BB6
:1056E0001C805C4B1C7014255B4B1D605B4B1D606C
:1056F000DFF8DC813946404605F0BDFC584940469C
:1057000005F0A8FC574B1C70574B584A1A60584B71
:10571000584A1A60584B1F80584B2D221A80584BFC
:105720001C70584B1D80584803685C63214603F089
:1057300007FF564803F008FC554803F005FC5548A0
:1057400003F002FCDFF88C81234622464FF4E1315E
:1057500040460AF00AFBDFF880A1234622464FF4B8
:10576000165150460AF001FB40460AF02BFB074653
:1057700040460AF02AFB0146384609F07FFD5146B3
:10578000454805F00BFB45480AF038FC44480AF050
:1057900035FC44480AF032FC282001F0EFFA2820BA
:1057A00001F0ECFA404F7F21384601F054FA06220E
:1057B0003E49384601F0AAF922464021484601F008
:1057C00060FE3B4802F07EFA01233371394B1C70B6
:1057D000394B1C70394B1C70394B1D80394B1D8067
:1057E000394B1C80394B23221A80F5E0001002400F
:1057F000A096002000280040000400487C9600206D
:10580000F0960020C00C0108B40C0108F40C01084B
:105810007C9500209C0C0108689700208096002051
:105820001C970020E80C0108289600204E960020C6
:1058300068050020A6960020A8970020509600201A
:105840007D9600207E960020EC960020B0970020E8
:10585000889600208A960020649500206895002094
:10586000E54E000876950020889700200000F04162
:105870009C970020000070418E9700209697002092
:10588000989600209A960020D8070020240800202F
:10589000BC0800207008002050030020D81600200B
:1058A000A8160020C01600208C0500204C95002072
:1058B000A407002077950020789500204F960020BF
:1058C000789600207A9600207E970020E2960020AD
:1058D0001C030020080A002058100020654B1B689C
:1058E00013F0005F3FF418AE624A136823F00053D0
:1058F000136011E6604B614A116855689468D0687E
:1059000059609D60DC6018611169596145E65A4B28
:105910005A4A116855689468D06859609D60DC6087
:105920001861116959615DE6554B9A68554B1A60CB
:105930009EE6554B1B68B3F1553F56D1534802F0D4
:10594000C1F90AF0B9F830B10AF044F800284CD196
:105950000AF05EF849E00AF0C7F8F5E74C4B002280
:105960001A734C4B1B68FBB94B4B1B78E3B14B4B89
:105970001B7CCBB9464B1B7DCBB14FF480714848A3
:1059800001F078FD012869D0414B00221A750EE024
:105990003F4B9B68E31A322BE3D9404B01229A75A7
:1059A0003B4B00221A73DCE7394B00221A753D4B42
:1059B0001B688BB92F4B1B6813F0005F0CD0374B63
:1059C0005B7A4BB90122354B1A722A490B6823F0D6
:1059D00000530B60344B1A70344A13680133136060
:1059E000334B1B68B3F1AA3FA3D0324805F010FA3D
:1059F00031480AF0EAF90AF013F9002802DD2E48CE
:105A00000AF061FA09F016FC2C480AF01FFB2C483A
:105A10000AF01CFB2B480AF019FB2B4805F031FB60
:105A200000F0A2FC04461B4B1B68002B96D11A4BBE
:105A30001B78002B92D0194BDB7D002B8ED1144BA1
:105A40001B7B002B8DD04FF48061154801F012FDB7
:105A500001289DD00E4B00221A7382E70C4B186967
:105A6000201A3228A3D90D4B0122DA73084B0022E9
:105A70001A759CE7A0960020F0960020D40C01082F
:105A800068970020809600201C000020A4070020BA
:105A900068050020EC960020A69600209C9500202A
:105AA00000040048B09700209896002070960020CF
:105AB000000000205003002058100020D8160020BD
:105AC000A8160020C01600201C030020704700000C
:105AD00038B504460D46012805D01CB94FF6FF73B2
:105AE0009D4231D038BD4FF6FF739942F5D1002366
:105AF000234A642123480AF077FA0023224A4FF40C
:105B00007A7122480AF070FA0023214A4FF47A7120
:105B100020480AF069FA204805F09AFA1F4805F073
:105B200039F91F4804F0EAFD1E4805F07BFB1E4BC7
:105B30001E4A1F491F480AF027FA1F4B1F4A2049D7
:105B400020480AF021FAC8E71E480AF005F919486A
:105B50000AF002F9134805F0D2FA114804F0D9FD11
:105B60000E4805F01AF90C4805F073FA09480AF0D6
:105B700015FA06480AF012FA02480AF00FFAB1E7DD
:105B800005CB0008D8160020CDD40008A8160020A8
:105B9000D9D60008C01600201C03002050030020A6
:105BA0002803002068050020C806002010070020F8
:105BB00088090020080A00203806002080060020FE
:105BC000080900205810002008B54FF6FF71012089
:105BD000FFF77EFF08BD08B54FF6FF710020FFF705
:105BE00077FF08BD82B00A4B1A6E42F001021A66B6
:105BF0001A6E02F001020092009A9A6D42F08052F1
:105C00009A659B6D03F080530193019B02B070472E
:105C10000010024070B588B00023039304930593ED
:105C2000069307930268294B9A4201D008B070BDD1
:105C3000044603F17043A3F5F833DA6C42F40052E2
:105C4000DA64DA6C02F400520092009ADA6C42F0E4
:105C50000102DA64DA6C02F001020192019ADA6C54
:105C600042F00202DA64DB6C03F002030293029B4F
:105C7000132303930B2604960025059503A94FF0E3
:105C8000904001F0A7FA012303930496059503A918
:105C90000F4801F09FFA0F480F4B03604560856085
:105CA000C560802303614FF4807343614FF48063C8
:105CB0008361C561056201F0C1F818B9054BE36461
:105CC0009C62B3E7FFF702FFF8E700BF0000045053
:105CD00000040048F0050020080002402DE9F041D2
:105CE00088B00023039304930593069307930268F7
:105CF000234B9A4202D008B0BDE8F081214CE36CFE
:105D000043F00103E364E36C03F001030093009BA1
:105D1000E36C43F00203E364E36C03F002030193DA
:105D2000019B802303934FF01208CDF810800127C8
:105D30000597032606960425079503A94FF0904082
:105D400001F048FA10230393CDF8108005970696CA
:105D5000079503A90C4801F03DFAA36D43F4000335
:105D6000A365A36D03F400030293029B0022114676
:105D7000482000F0CFFF482001F000F8BBE700BF4B
:105D8000005C004000100240000400480268064B1E
:105D90009A4200D07047054AD2F8903043F400434D
:105DA000C2F89030F6E700BF002800400010024023
:105DB00000B585B003682E4A93420BD0B3F1804FF3
:105DC00023D02C4A93422CD02B4A93423CD005B08E
:105DD0005DF804FB294B1A6E42F400621A661B6ED2
:105DE00003F400630093009B00221146192000F089
:105DF00091FF192000F0C2FF002211461B2000F085
:105E000089FF1B2000F0BAFFE1E703F504339A6D28
:105E100042F001029A659B6D03F001030193019B1F
:105E2000D5E7164B9A6D42F010029A659B6D03F010
:105E300010030293029B00221146362000F06AFFF5
:105E4000362000F09BFFC2E70C4B9A6D42F0200217
:105E50009A659B6D03F020030393039B0022114678
:105E6000372000F057FF372000F088FFAFE700BF72
:105E7000002C0140001000400014004000100240BF
:105E800000B587B000230193029303930493059315
:105E90000268104B9A4202D007B05DF804FB03F58C
:105EA0006443DA6C42F00102DA64DB6C03F0010354
:105EB0000093009B4FF4807301930223029300230D
:105EC000039304930123059301A94FF0904001F03F
:105ED00081F9E1E7002C014070B58AB00446002347
:105EE0000593069307930893099303685C4A9342CA
:105EF00004D05C4A93425AD00AB070BD5A4B1A6E15
:105F000042F480421A661A6E02F480420192019AAB
:105F1000DA6C42F00102DA64DB6C03F001030293F5
:105F2000029B4FF4C0630593022606960025079551
:105F3000032308930723099305A94FF0904001F02C
:105F400049F94A484A4B0360466010238360C560A4
:105F50008023036145618561C561056200F06EFFC4
:105F6000F8B9424BA3669C624248434B036002234C
:105F7000436000238360C3608022026143618361C8
:105F8000C361036200F05AFF70B93A4BE3669C624A
:105F900000221146252000F0BDFE252000F0EEFE77
:105FA000AAE7FFF793FDDCE7FFF790FDEDE72E4B47
:105FB0009A6D42F400329A659A6D02F400320392AF
:105FC000039ADA6C42F00102DA64DB6C03F001033D
:105FD0000493049B0C23059302260696002507953F
:105FE000032308930723099305A94FF0904001F07C
:105FF000F1F82248224B0360466010238360C5609D
:106000008023036145618561C561056200F016FF6B
:10601000F8B91A4BA3669C621A481B4B0360022313
:10602000436000238360C360802202614361836117
:10603000C361036200F002FF70B9124BE3669C6219
:1060400000221146262000F065FE262000F096FE74
:1060500052E7FFF73BFDDCE7FFF738FDEDE700BF58
:10606000003801400044004000100240800600203B
:10607000440002403806002058000240100700206B
:1060800080000240C80600206C00024010B50446A3
:106090000368194A934203D0184A934216D010BDA0
:1060A00002F55842136E23F4804313664FF4C06127
:1060B0004FF0904001F05AF9A06E00F03BFFE06E07
:1060C00000F038FF252000F067FEE8E702F5E63231
:1060D000936D23F4003393650C214FF0904001F051
:1060E00045F9A06E00F026FFE06E00F023FF2620A9
:1060F00000F052FED3E700BF0038014000440040EA
:106100007047FEE7FEE7FEE7FEE77047704770471F
:1061100008B504F071F808BD08B5024800F0F6FFB4
:1061200008BD00BFF005002008B5024800F0EEFFF2
:1061300008BD00BF8006002008B5024800F0E6FF59
:1061400008BD00BF3806002008B5024800F0DEFF99
:1061500008BD00BFC806002008B5024800F0D6FF01
:1061600008BD00BF1007002008B54FF4807001F093
:1061700097F908BD08B5024802F020FF08BD00BF2E
:10618000D807002008B5024802F018FF08BD00BF7C
:10619000D807002010B5044C204603F0D7FC204659
:1061A00004F00CF810BD00BF0809002010B5044C25
:1061B000204603F0CBFC204604F000F810BD00BFE1
:1061C0008809002008B54FF4806001F069F94FF4A8
:1061D000805001F065F94FF4804001F061F908BD8D
:1061E00008B5024802F0EAFE08BD00BF70080020B2
:1061F00008B5024802F0E2FE08BD00BFBC0800205E
:1062000008B5024801F0D0FC08BD00BF58070020C7
:1062100010B503460C4A0D490D48006840B10C48C2
:1062200000680344521A934206D8094A136010BD0D
:106230000748084C0460F2E709F064FF0C23036090
:106240004FF0FF30F3E700BF000001200010000016
:10625000F0160020289800200F49D1F8883043F428
:106260007003C1F888300D4B1A6842F001021A60C1
:10627000002098601A6822F0A85222F410221A60B6
:106280004FF48052DA601A6822F480221A60986112
:10629000034B8B60704700BF00ED00E00010024030
:1062A00000400008DFF834D0FFF7D6FF002103E0FC
:1062B0000B4B5B58435004310A480B4B42189A422F
:1062C000F6D30A4A02E0002342F8043B084B9A4204
:1062D000F9D309F01DFFFFF7FBF8FEE700000120EE
:1062E000BC21010800020020000300200003002060
:1062F00024980020FEE70000104B1B780BB901200A
:10630000704710B504464FF47A70B0FBF3F30C4AB3
:106310001068B0FBF3F000F063FD68B90F2C01D9F1
:1063200001200AE0002221464FF0FF3000F0F2FC8D
:10633000044B1C60002000E0012010BD040200207E
:10634000000200200802002010B5032000F0D0FC5D
:106350000020FFF7D1FF10B10124204610BD0446F4
:10636000FFF740FCF9E70000014B1868704700BFD9
:10637000C097002030B583B000230193002800F0BF
:10638000D8800446436D03B323689A6812F0005F17
:1063900005D09A6822F0204222F03F029A602268DB
:1063A000936813F0805F1DD1936823F0104323F0AE
:1063B0003F0343F0805393605F4B1B689B095F4A28
:1063C000A2FB03239B09019309E0FFF723FC0023B1
:1063D000A36584F85030D7E7019B013B0193019BF3
:1063E000002BF9D12268936813F0805F09D1636DA7
:1063F00043F010036365A36D43F00103A36501201F
:1064000000E00020936813F0040300D00123616DC5
:1064100011F0100F40F08680002B40F08380636DF8
:1064200023F4817343F002036365936813F0010F53
:106430000BD1434B9B6813F0010F06D163684149B0
:106440008A6822F47C1213438B60627E636B43EA9A
:106450004233E2681343A268134394F8202043EACE
:106460000243012A3ED0A26A22B102F47072E16AAC
:106470000A4313432168CD68334A2A401343CB6053
:1064800021688B6813F0040300D001238A6812F09E
:10649000080200D00122B3B9AAB9227E94F83030A4
:1064A0005B0043EA8232CB6823F4804323F002038B
:1064B0001343CB6094F83830012B18D0226813694D
:1064C00023F0010313612369012B22D02268136B8F
:1064D00023F00F031363636D23F0030343F0010301
:1064E000636524E0626A013A43EA4243BBE72168FC
:1064F0000B6923F4FF6323F00403E26B256C2A434A
:10650000656C2A43A56C2A43134343F001030B61D6
:10651000D9E721680B6B23F00F03E269013A1343BB
:106520000B63D8E7636D43F010036365012003B08C
:1065300030BD0120FBE700BF00020020632D3E05B7
:10654000000004500003045007C0F0FF704708B576
:10655000806AFFF7FBFF08BD704708B50346806AF5
:10656000426D12F0500F30D1436D43F40073436518
:1065700003681A6812F0080F14D0DA6812F4406F3A
:1065800020D1DB6813F4005F1CD1436D23F48073CA
:106590004365436D13F4805F14D1436D43F00103F1
:1065A00043650FE0DB6813F0020F0BD1436D23F45A
:1065B00080734365436D13F4805F03D1436D43F0F3
:1065C0000103436503F0F0FF08BD426D12F0100FA8
:1065D00004D1C26C526B18469047F5E7FFF7BCFF39
:1065E000F2E708B5806A436D43F040034365836D6D
:1065F00043F004038365FFF7AFFF08BDF0B482B03A
:106600000022019290F85020012A00F02D820346CA
:10661000012280F850200268926812F0040F0AD01C
:10662000426D42F0200242650120002283F8502092
:1066300002B0F0BC70474A68052A09D8023A032A1A
:1066400000F28E80DFE802F0028285880C224A6028
:106650001E684D680C6830362A0A920002F00C025F
:10666000B05805F01F051F27AF4020EA0700C4F30C
:106670008464AC402043B0501C68A26812F004024D
:1066800000D00122A06810F0080000D0012052BB09
:1066900048BB0E688D681434720E920002F004023A
:1066A000A058C6F304560727B74020EA0700B540B4
:1066B0002843A0504C691868C268C2F3C102520056
:1066C00004FA02F20D69042D4DD00E68603050F8C6
:1066D0002570AC4C3C4006F0F8463243144344F07D
:1066E000004440F825401868826812F0010F16D166
:1066F0000A68CD68D0F8B040C2F3120624EA060456
:1067000005F01806A04DF5402A40C2F312022243BC
:10671000C0F8B020C8689D4A904200F08B800A689B
:106720009B490A4200F09C819A49896801F0E07413
:106730009948824200F047819848824200F069817E
:106740009748824200F0798100206EE712224A6069
:106750007EE718224A607BE74FF480724A6077E751
:1067600006224A6074E7026E046EC4F384640A6809
:10677000C2F312057DBBC2F38462944233D01C681D
:10678000626E606EC0F384600A68C2F312057DBB5E
:10679000C2F38462904233D01C68A26EA06EC0F334
:1067A00084600A68C2F312057DBBC2F38462904222
:1067B00033D01C68E26EE06EC0F384600A68C2F3F6
:1067C00012057DBBC2F3846290428CD1E26E22F04E
:1067D0000042E26687E792FAA2F212B1B2FA82F2BE
:1067E000CBE72022C9E7026E22F000420266C6E72C
:1067F00092FAA2F212B1B2FA82F2CBE72022C9E7F2
:10680000626E22F000426266C6E792FAA2F212B10C
:10681000B2FA82F2CBE72022C9E7A26E22F0004250
:10682000A266C6E792FAA2F212B1B2FA82F2CBE7FE
:106830002022C9E71D680A68C2F31206002E35D16E
:10684000900E013000F01F0009288CBF00200120AD
:10685000002862D0002E38D1940E0134A40604F032
:10686000F844002E3DD1900E013000F01F070120AA
:10687000B8400443002E42D1920E013202F01F02B2
:1068800002EB4202120522438C681435500E800040
:1068900000F004002E58C2F304520727974026EA5E
:1068A000070604FA02F232432A5038E792FAA2F0BD
:1068B00048B1B0FA80F0013000F01F0009288CBF09
:1068C00000200120C4E72020F5E792FAA2F434B1B9
:1068D000B4FA84F40134A40604F0F844C1E7202497
:1068E000F8E792FAA2F040B1B0FA80F0013000F07F
:1068F0001F00012707FA00F0BBE72020F6E792FA15
:10690000A2F242B1B2FA82F2013202F01F0202EBAD
:1069100042021205B7E72022F6E7CEB9940E013401
:10692000A40604F0F844FEB9900E013000F01F07F1
:106930000120B8400443AEBB900E013000F01F00B0
:1069400000EB40021E3A120542F0007222439BE720
:1069500092FAA2F434B1B4FA84F40134A40604F037
:10696000F844E0E72024F8E792FAA2F040B1B0FA48
:1069700080F0013000F01F00012707FA00F0D9E78E
:106980002020F6E700F0FF03FFFF070000007F4034
:106990000000088000030450000052C7000084CBB0
:1069A0000100008092FAA2F25AB1B2FA82F00130EC
:1069B00000F01F0000EB40021E3A120542F0007288
:1069C000C4E72020F3E711F4000F7FF4B5AE196897
:1069D000264A914201D0002027E644F400022448D0
:1069E000816821F0E0710A438260224A12689209AC
:1069F0002149A1FB0212920902EB4202920001928C
:106A000002E0019A013A0192019A002AF9D100208C
:106A10000BE611F0807F7FF493AE1968134A914220
:106A200001D0002001E644F080721148816821F015
:106A3000E0710A4382600020F7E511F4800F11D164
:106A400019680A4A914201D00020EEE544F4800220
:106A50000748816821F0E0710A4382600020E4E584
:106A60000020E2E50020E0E50220E1E5000004501E
:106A70000003045000020020632D3E0538B5036872
:106A80009A6812F0010F3DD1044699681E4A1142DE
:106A900009D0436D43F010034365836D43F0010358
:106AA000836501202FE09A6822F0004222F03F0225
:106AB00042F001029A60FFF757FC054604E0FFF739
:106AC00053FC431B022B11D823681A6812F0010FE4
:106AD00016D19A6812F0010FF1D19A6822F00042A3
:106AE00022F03F0242F001029A60E8E7636D43F052
:106AF00010036365A36D43F00103A365012002E069
:106B0000002000E0002038BD3F00008003689B6843
:106B100013F0040F4FD170B504460E46154690F899
:106B20005030012B49D0012380F85030FFF7A6FFE9
:106B300000283CD1636D23F4706323F0010343F418
:106B400080736365636D13F4805F2DD0A36D23F0B4
:106B50000603A365E36C1A4ADA62E36C194A1A6306
:106B6000E36C194A5A6323681C221A60002384F8D4
:106B700050302268536843F0100353602268D36892
:106B800043F00103D36021682B4632464031E06C6C
:106B900000F034FA2268936823F0004323F03F03A7
:106BA00043F00403936070BD0023A365D2E7002384
:106BB00084F85030F7E7022070470220F3E700BF67
:106BC0005B6500084F650008E365000838B50446BA
:106BD0000268936813F0020300D00123916811F05A
:106BE000010F34D0002B34D1936803F00D03012B37
:106BF00009D0636D43F010036365A36D43F0010397
:106C0000A365012024E0936823F0004323F03F03B1
:106C100043F002039360236803221A60FFF7A4FB8A
:106C2000054623689B6813F0010F0ED0FFF79CFB0D
:106C3000401B0228F5D9636D43F010036365A36D13
:106C400043F00103A365012002E0002000E00020E2
:106C500038BD0020FCE730B583B00023019390F8E5
:106C60005030012B41D004460D46012380F85030AE
:106C7000FFF7ACFF80BB636D23F4885323F002035E
:106C800043F0020363652268936823F0404323F0D6
:106C90003F0305F080452B4343F000439360236896
:106CA0009B68002B06DB636D23F0030343F00103B5
:106CB000636515E0019B01330193019BB3F5912FAF
:106CC000EDD3636D23F0120343F0100363650023DB
:106CD00084F85030012006E0636D43F010036365D3
:106CE000002384F8503003B030BD0220FBE70000E1
:106CF000074AD36823F4E0631B041B0C000200F472
:106D0000E060034343F0BF6343F40033D360704754
:106D100000ED00E030B4174BDB68C3F30223C3F18E
:106D20000704042C28BF04241D1D062D18D9033B7D
:106D30004FF0FF3505FA04F421EA0401994005FA01
:106D400003F322EA0303194300280BDB0901C9B24C
:106D500000F1604000F5614080F8001330BC7047DE
:106D60000023E5E700F00F000901C9B2024B1954F6
:106D7000F4E700BF00ED00E014ED00E0002807DBC1
:106D800000F01F02400901239340024A42F82030DC
:106D9000704700BF00E100E000280CDB00F01F029C
:106DA0004009012393402030034A42F82030BFF3CA
:106DB0004F8FBFF36F8F704700E100E0BFF34F8F3D
:106DC0000549CA6802F4E062044B1343CB60BFF389
:106DD0004F8F00BFFDE700BF00ED00E00400FA05A3
:106DE0000138B0F1807F0AD2064B5860064AF02184
:106DF00082F823100020986007221A607047012053
:106E0000704700BF10E000E000ED00E070B4446C9B
:106E100004F01C05066C0124AC40746004686360D7
:106E20008368102B05D0036899600368DA6070BC32
:106E3000704703689A600368D960F8E7002868D053
:106E400010B403460068344A904244D8334A02449E
:106E50003349A1FB0212120992005A64314A1A64A2
:106E6000022283F82520016821F4FF4121F07001FE
:106E70009A68DC6822431C6922435C6922439C694E
:106E80002243DC6922431C6A22430A4302609A6857
:106E9000B2F5804F15D0196C224A914226D0224A71
:106EA0001168586C00F01C040F20A04021EA00017A
:106EB0001160116858685C6C04F01C04A040014328
:106EC00011600020D863012283F8252083F8240074
:106ED0005DF8044B7047154A02441149A1FB0212A8
:106EE000120992005A64124A1A64B9E7A83211686A
:106EF000586C00F01C040F20A04021EA0001116032
:106F0000116858685C6C04F01C04A04001431160D7
:106F1000D7E70120704700BF07040240F8FFFDBF1C
:106F2000CDCCCCCC00000240A8040240F8FBFDBF51
:106F30000004024000284ED010B4034601680A68DD
:106F400022F001020A600168244A91422DD8244AA5
:106F50000A442448A0FB0202120992005A64224A01
:106F60001A6400220A605A6C02F01C01186C01229B
:106F70008A404260196C1C4A914221D01B4C226805
:106F8000596C01F01C000F21814022EA01022260AD
:106F90000020D862186358639863D86383F825008B
:106FA00083F824005DF8044B7047114A0A440D48E9
:106FB000A0FB0202120992005A640E4A1A64D0E73A
:106FC0000D4C2268596C01F01C000F21814022EA0F
:106FD00001022260DCE70120704700BF0704024085
:106FE000F8FFFDBFCDCCCCCC00000240A80402408D
:106FF000F8FBFDBF00040240A800024038B504467B
:1070000090F82400012832D0012084F8240094F85C
:107010002500C0B2012804D0002384F824300220C7
:1070200038BD022084F825000020E0632568286828
:1070300020F0010028602046FFF7E8FE236B5BB1DB
:107040002268136843F00E0313602268136843F04C
:10705000010313600020E3E72268136823F00403B0
:1070600013602268136843F00A031360EDE70220FF
:10707000D6E790F82530DBB2022B06D00423C36399
:10708000002380F82430012070470268136823F041
:107090000E0313600268136823F001031360436C4E
:1070A00003F01C03016C012202FA03F34B6080F829
:1070B0002520002380F824301846704708B590F842
:1070C0002530DBB2022B03D00423C363012008BDAB
:1070D0000268136823F00E0313600268136823F03C
:1070E00001031360436C03F01C03016C012202FADC
:1070F00003F34B6080F82520002380F82430836B55
:1071000013B198470020E2E70020E0E738B5036CB0
:10711000196804682568436C03F01C0304229A4034
:107120000A4215D015F0040F12D0236813F0200F77
:1071300003D1236823F004032360436C03F01C0293
:10714000016C042393404B60036B03B1984738BD37
:1071500002229A400A421CD015F0020F19D023686F
:1071600013F0200F06D1236823F00A0323600123C4
:1071700080F82530436C03F01C02016C022393401D
:107180004B60002380F82430C36A002BDFD098477F
:10719000DDE7082202FA03F30B42D8D015F0080FFE
:1071A000D5D0236823F00E032360436C03F01C0347
:1071B000016C012202FA03F34B60C26380F82520C0
:1071C000002380F82430436B002BC0D09847BEE7E3
:1071D000C06B7047F0B583B0002336E0042400E0B4
:1071E0000024B4403C4302355C4E46F825405C4CDC
:1071F0002568D44325EA02064F6817F4803F01D082
:1072000042EA0506564D2E606D6804EA05064F6891
:1072100017F4003F01D042EA0506514D6E60AD689B
:1072200004EA05064F6817F4801F01D042EA0506FC
:107230004B4DAE60ED682C404E6816F4001F01D037
:1072400042EA0504464AD46001330A6832FA03F47C
:1072500000F0818001249C402240F5D04D686E1ED4
:10726000012E03D9112D01D0122D12D186685F0095
:107270000325BD4026EA0506CD68BD40354385603F
:10728000466826EA04064D68C5F300149C40344362
:107290004460C7685E000325B540EC4327EA050754
:1072A0008D68B5403D43C5604D68022D01D0122D5B
:1072B00013D1DF08083750F827E003F007054FEA3D
:1072C000850C0F2505FA0CF52EEA050E0D6905FA59
:1072D0000CF545EA0E0540F82750056825404C6836
:1072E00004F00304B4402C4304604C6814F0805F45
:1072F000AAD01C4C256E45F001052566246E04F0CD
:1073000001040194019C9D08AE1C144C54F8267095
:1073100003F00304A6000F24B44027EA0407B0F1E9
:10732000904F3FF45DAF104CA0420ED004F5806446
:10733000A0420CD004F58064A0420AD004F5806419
:10734000A0423FF44BAF07244BE7012449E7022456
:1073500047E7032445E703B0F0BD00BF000001404C
:10736000000401400010024000040048002331FAEC
:1073700003F278D0F0B52DE0042600E0002606FAEE
:1073800004F4AC4253D005685C00032606FA04F40A
:107390002543056023FA06F5083550F8256003F00B
:1073A00007074FEA870C0F2707FA0CF726EA0706AC
:1073B00040F82560856825EA04058560456825EA6A
:1073C00002024260C26822EA0404C460013331FA56
:1073D00003F247D001229A4012EA010EF6D04FEA9A
:1073E000930C0CF10205204C54F8255003F00304D3
:1073F000A4000F2606FA04F73D40B0F1904FBDD02F
:107400001A4EB0420DD006F58066B0420BD006F59C
:107410008066B04209D006F58066B042ACD007263F
:10742000ADE70126ABE70226A9E70326A7E7104C44
:10743000256825EA0E052560656825EA0E05656064
:10744000A56825EA0E05A560E56825EA0E05E56054
:10745000054D0CF1020455F8246026EA070645F8AC
:10746000246090E7F0BD7047000001400004004830
:10747000000401400369194201D001207047002037
:1074800070470AB18161704781627047436901EAC0
:10749000030221EA030141EA0241816170470000D1
:1074A00008B5054B5B69034200D108BD024B58612A
:1074B00002F014FFF9E700BF0004014003689A6975
:1074C00012F0020F01D000229A6203689A6912F04A
:1074D000010F03D19A6942F001029A61704770B4BA
:1074E000039E05686868740D04F4806444F07F743A
:1074F00044F4583444F47F7444F0030420EA040054
:10750000C1F3090141EA0241194331430143696072
:1075100070BC7047F8B505460E46174603689B6970
:1075200013F0100F01D10020F8BD2B689C6914F0F6
:10753000200F17D1B6F1FF3FF7D0FEF715FFC01BA4
:10754000B04201D8002EF0D16B6C43F020036B6485
:10755000202385F84130002385F8423085F84030FB
:107560000120E1E71022DA612B682024DC61284643
:10757000FFF7A4FF2A68536823F0FF7323F48B33CB
:1075800023F4FF7323F0010353606B6C43F0040397
:107590006B6485F84140002385F8423085F840301F
:1075A0000120C1E770B504460D46164623689B6965
:1075B00013F0020F1DD1324629462046FFF7AAFFDD
:1075C000C8B9B5F1FF3FF1D0FEF7CEFE801BA8424F
:1075D00001D8002DEAD1636C43F0200363642023BB
:1075E00084F84130002384F8423084F84030012090
:1075F00000E0002070BD0120FCE72DE9F0410646C7
:10760000884617461D463468A46938EA04030CBF4F
:1076100001240024BC4218D1B5F1FF3FF3D0FEF79E
:10762000A3FE069BC01AA84201D8002DEBD1736CB3
:1076300043F020037364202386F84130002386F84A
:10764000423086F84030012000E00020BDE8F081A3
:107650002DE9F04182B0044690461D46089E099FE0
:10766000194B00934FF08073EAB2FFF738FF3A46A8
:1076700031462046FFF796FFF8B9012D0ED1236859
:107680005FFA88F29A6200973346002280212046F2
:10769000FFF7B3FFA8B902B0BDE8F08123684FEA55
:1076A00018229A623A4631462046FFF77BFF30B9EE
:1076B00023685FFA88F29A62E5E70120EBE7012090
:1076C000E9E70120E7E700BF002000802DE9F04155
:1076D00082B0044690461D46089E099F184B0093B1
:1076E0000023EAB2FFF7FBFE3A4631462046FFF799
:1076F00059FFF8B9012D0ED123685FFA88F29A621A
:1077000000973346002240212046FFF776FFA8B9B4
:1077100002B0BDE8F08123684FEA18229A623A4627
:1077200031462046FFF73EFF30B923685FFA88F202
:107730009A62E5E70120EBE70120E9E70120E7E7AE
:107740000020008070B505460C4616462B689B69E4
:1077500013F0200F1AD1324621462846FFF7DAFEF1
:10776000B0B9FEF701FE801BA04201D8002CEDD17C
:107770006B6C43F020036B64202385F841300023B9
:1077800085F8423085F84030012070BD0020FCE7CC
:107790000120FAE7002859D010B5044690F841308E
:1077A000002B43D0242384F841302268136823F04F
:1077B000010313606368226823F070631361226819
:1077C000936823F400439360E368012B33D0A368EC
:1077D000226843F404439360E368022B31D02268AB
:1077E000536843F0007343F4004353602268D36846
:1077F00023F40043D360236962691343A1692268BB
:1078000043EA0123D360E369216A22680B431360D2
:107810002268136843F00103136000206064202392
:1078200084F84130206384F8420010BD80F8403075
:10783000FEF754FAB6E7A368226843F40043936066
:10784000CAE723684FF400625A60C8E70120704716
:107850002DE9F04F83B00E46BDF834A00E9D90F890
:107860004110C9B2202940F0BB8004469046994699
:107870000C9BCBB1BAF1000F16D090F84030012B21
:1078800000F0B2804FF0010B80F840B0FEF76CFDC5
:107890000746009019235A464FF400412046FFF74F
:1078A000ACFE30B101209CE04FF400736364012012
:1078B00097E0212384F84130402384F842300023AC
:1078C00063640C9A6262A4F82AA06363019700952E
:1078D0004B46424631462046FFF7BAFE70B9638DEB
:1078E0009BB2FF2B0FD9FF222285002300934FF07C
:1078F000807331462046FFF7F2FD21E0002384F833
:10790000403058466DE0628D92B22285002300938C
:107910004FF00073D2B231462046FFF7E0FD0FE092
:10792000628D92B22285002300934FF00073D2B291
:1079300031462046FFF7D3FD638D9BB2002B33D039
:107940003A4629462046FFF72DFE00284ED1626AAE
:10795000236812789A62636A01336362638D9BB213
:10796000013B9BB26385238D013B9BB22385628DD6
:1079700092B2002AE0D0002BDED100972B460022E5
:1079800080212046FFF739FE90BB638D9BB2FF2B11
:10799000C6D9FF222285002300934FF08073314621
:1079A0002046FFF79CFDC7E73A4629462046FFF7E9
:1079B000C9FEF8B923682022DA6121684B6823F0F8
:1079C000FF7323F48B3323F4FF7323F001034B6025
:1079D00084F84120002384F8423084F8403000E0ED
:1079E000022003B0BDE8F08F0220FAE70120F8E79B
:1079F0000120F6E70120F4E72DE9F04F83B00E46B1
:107A0000BDF834A00E9D90F84110C9B2202940F075
:107A1000BC800446904699460C9BCBB1BAF1000F4E
:107A200016D090F84030012B00F0B3804FF0010BDE
:107A300080F840B0FEF798FC0746009019235A469C
:107A40004FF400412046FFF7D8FD30B101209DE002
:107A50004FF400736364012098E0222384F84130DE
:107A6000402384F84230002363640C9A6262A4F8D5
:107A70002AA06363019700954B4642463146204653
:107A8000FFF724FE70B9638D9BB2FF2B0FD9FF2245
:107A90002285444B00934FF0807331462046FFF718
:107AA0001EFD21E0002384F8403058466EE0628DD0
:107AB00092B222853B4B00934FF00073D2B2314615
:107AC0002046FFF70CFD0FE0628D92B22285002365
:107AD00000934FF00073D2B231462046FFF7FFFC0F
:107AE000638D9BB2002B34D000972B4600220421DB
:107AF0002046FFF782FD00284DD123685A6A636A49
:107B00001A70636A01336362228D013A92B2228550
:107B1000638D9BB2013B9BB26385638D9BB2002B4F
:107B2000DED0002ADCD100972B4680212046FFF7CB
:107B300064FD90BB638D9BB2FF2BC5D9FF222285CC
:107B4000002300934FF0807331462046FFF7C7FCB7
:107B5000C6E73A4629462046FFF7F4FDF8B9236800
:107B60002022DA6121684B6823F0FF7323F48B3302
:107B700023F4FF7323F001034B6084F841200023BA
:107B800084F8423084F8403000E0022003B0BDE8C1
:107B9000F08F0220FAE70120F8E70120F6E7012044
:107BA000F4E700BF0024008008B5036899691A68EB
:107BB000436B03B1984708BD90F84130DBB2202BEE
:107BC00024D190F84030012B22D0012380F840309E
:107BD000242380F841300268136823F00103136006
:107BE0000268136823F48053136002681368194312
:107BF00011600268136843F001031360202380F8CA
:107C00004130002380F8403018467047022070470A
:107C10000220704790F84130DBB2202B22D190F83F
:107C20004030012B20D0012380F84030242380F8FD
:107C300041300268136823F001031360026813687F
:107C400023F4706343EA012111600268136843F072
:107C500001031360202380F84130002380F8403076
:107C600018467047022070470220704740B338B56D
:107C7000044603684CF6CC421A60036845F255523C
:107C80001A60036842685A60036882689A60FEF767
:107C90006BFB05462368DA6832B1FEF765FB401BD3
:107CA0003028F7D9032038BD1969E268914202D023
:107CB0001A610020F7E74AF6AA221A600020F2E7CC
:107CC0000120704703684AF6AA221A600020704714
:107CD000024A136843F480731360704700700040D9
:107CE000024A136823F480731360704700700040E9
:107CF000024B186800F4C060704700BF007000407D
:107D0000B0F5007F0FD01F4B1B6803F4C063B3F5C1
:107D1000806F34D01B4A136823F4C06343F480633C
:107D2000136000207047174B1B6803F4C063B3F562
:107D3000007F20D0134A136823F4C06343F4007318
:107D40001360114B1A68322303FB02F30F4AA2FBA4
:107D500003239B0C013300E0013B0A4A526912F4F1
:107D6000806F01D0002BF7D1064B5B6913F4806F55
:107D700003D1002070470020704703207047002087
:107D8000704700BF007000400002002083DE1B43EC
:107D900030B583B00446204B9B6D13F0805F0BD051
:107DA000FFF7A6FFB0F5007F17D0802C1FD82DD08D
:107DB000702C2DD000211BE0174DAB6D43F080538C
:107DC000AB65AB6D03F080530193019BFFF790FF10
:107DD000AB6D23F08053AB65E4E7802C03D9A02C76
:107DE00003D9022104E0002102E0012100E0032187
:107DF0000A4A136823F007030B431360136803F068
:107E000007038B4206D1002003B030BD0221EFE70B
:107E10000121EDE70120F7E70010024000200240B9
:107E2000284A9368D26802F0030213F00C030AD0C8
:107E30000C2B06D0042B1FD0082B20D0002002468C
:107E400010E0012AF6D11F4A126812F0080F0CD177
:107E50001C4AD2F89420C2F303221B4951F8222075
:107E600043B100200C2B0DD07047164A1268C2F3A4
:107E70000312F2E71046F5E714480022F2E714482F
:107E80000022EFE70F4BDB6803F00303022B16D051
:107E9000032B00D10E4A0B4BD868C0F302100130FF
:107EA000D968C1F3062102FB01F2B2FBF0F2D868F7
:107EB000C0F3416001304000B2FBF0F0D4E7034A68
:107EC000E9E700BF00100240400A01080024F40066
:107ED00000127A00002800F02783F0B583B0044632
:107EE000AE4B9D6805F00C05DE6806F003060368DE
:107EF00013F0100F5AD0E5B10C2D18D0A369002B48
:107F000000F0BB80A54A136843F001031360FEF73D
:107F10002BFA0746A14B1B6813F0020F40F09A8022
:107F2000FEF722FAC01B0228F4D9032007E3012E32
:107F3000E4D19A4B1B6813F0020F03D0A369002B06
:107F400000F0F482206A954B1B6813F0080F5BD099
:107F5000924B1B6803F0F00398425CD88F4B1A6871
:107F600042F008021A601A6822F0F002216A0A43FD
:107F70001A605A6822F47F42E16942EA01225A609B
:107F8000002D60D0FFF74CFF844B9B68C3F30313B5
:107F9000834AD35C03F01F03D840824B1860824BA6
:107FA0001868FEF7A9F9002840F0C982236813F089
:107FB000010F00F08180082D75D00C2D71D0636801
:107FC000B3F5803F00F09780B3F5A02F00F09980C3
:107FD000724B1A6822F480321A601A6822F48022E6
:107FE0001A606368002B00F09980FEF7BDF9074620
:107FF0006A4B1B6813F4003F5ED1FEF7B5F9C01B56
:108000006428F5D903209AE2644BD3F894301B0915
:1080100003F0F003A0E7FFF7BBFE002840F08882E2
:108020005E4B1A6842F008021A601A6822F0F002E9
:10803000216A0A431A605A6822F47F42E16942EADF
:1080400001225A609EE7206AFFF7A2FE002899D01D
:10805000012074E2514B1A6842F008021A601A6853
:1080600022F0F002216A0A431A605A6822F47F4221
:10807000E16942EA01225A6098E7484A136823F00E
:1080800001031360FEF770F90746444B1B6813F0B9
:10809000020F8BD0FEF768F9C01B0228F5D9032028
:1080A0004DE2032E8BD13D4B1B6813F4003F03D0F0
:1080B0006368002B00F03E82236813F0020F4FD05C
:1080C000042D3CD00C2D38D0E368002B77D0334AF8
:1080D000136843F480731360FEF746F906462F4B8E
:1080E0001B6813F4806F61D1FEF73EF9801B0228F4
:1080F000F5D9032023E2294A136843F4803313603F
:108100006FE703F18043A3F53C331A6842F4802201
:108110001A601A6842F480321A6062E7FEF724F9A6
:1081200007461E4B1B6813F4003FC5D0FEF71CF931
:10813000C01B6428F5D9032001E2022EC4D1174BDD
:108140001B6813F4806F03D0E368002B00F0F48108
:10815000124A536823F0FE43216943EA01635360E6
:10816000236813F0080F55D06369002B3BD00B4AEE
:10817000D2F8943043F00103C2F89430FEF7F4F8DB
:108180000646064BD3F8943013F0020F42D1FEF7A7
:10819000EBF8801B0228F4D90320D0E10010024044
:1081A000280A01080002002008020020B44A53688F
:1081B00023F0FE43216943EA01635360D0E7B04AEC
:1081C000136823F480731360FEF7CEF80646AC4BB9
:1081D0001B6813F4806FC3D0FEF7C6F8801B02281B
:1081E000F5D90320ABE1A64AD2F8943023F001037D
:1081F000C2F89430FEF7B8F80646A14BD3F8943095
:1082000013F0020F06D0FEF7AFF8801B0228F4D956
:10821000032094E1236813F0040F7AD0984B9B6DF0
:1082200013F0805F36D1964B9A6D42F080529A657A
:108230009B6D03F080530193019B0126914B1B68BA
:1082400013F4807F28D0A368012B39D0052B3FD0B1
:108250008B4BD3F8902022F00102C3F89020D3F882
:10826000902022F00402C3F89020A368002B3DD098
:10827000FEF77AF80746824BD3F8903013F0020FDE
:1082800046D1FEF771F8C01B41F288339842F2D90B
:10829000032054E10026D1E77A4A136843F480733F
:1082A0001360FEF761F80746764B1B6813F4807F76
:1082B000C9D1FEF759F8C01B0228F5D903203EE1C9
:1082C0006F4AD2F8903043F00103C2F89030CCE707
:1082D0006B4BD3F8902042F00402C3F89020D3F8FF
:1082E000902042F00102C3F89020BEE7FEF73CF870
:1082F0000746634BD3F8903013F0020F08D0FEF717
:1083000033F8C01B41F288339842F2D9032016E1BA
:10831000E6B9236813F0200F35D0636AE3B1584AF9
:10832000D2F8983043F00103C2F89830FEF71CF8F9
:108330000646534BD3F8983013F0020F23D1FEF7C3
:1083400013F8801B0228F4D90320F8E04C4A936DFF
:1083500023F080539365DCE7494AD2F8983023F044
:108360000103C2F89830FDF7FFFF0646444BD3F8EF
:10837000983013F0020F06D0FDF7F6FF801B02289D
:10838000F4D90320DBE0A36A002B00F0D780022B96
:1083900027D00C2D00F0D780394B1A6822F080725C
:1083A0001A601B6813F0006F04D1354AD36823F0BC
:1083B0000303D360324AD36823F0887323F48033F5
:1083C000D360FDF7D1FF04462D4B1B6813F0007FEF
:1083D00000F0A880FDF7C8FF001B0228F4D9032095
:1083E000ADE0274BDB6803F00301E26A914209D05C
:1083F0000C2D00F0A680224B1B6813F0806F2BD051
:1084000001209CE003F07002216B0139B2EB011FE7
:10841000EED103F4FE42616BB2EB012FE8D103F021
:108420007842A16BB2EBC16FE2D103F4C001E26B01
:108430005208013AB1EB425FDAD103F0C063226C1B
:108440005208013AB3EB426FD2D10D4B1B6813F0C7
:10845000007F4DD0002072E0094A136823F080733A
:108460001360FDF781FF0546054B1B6813F0007F85
:108470000AD0FDF779FF401B0228F5D903205EE002
:108480000010024000700040304AD3683049194063
:10849000E36A206B013843EA0013606B43EA002370
:1084A000E06B4008013843EA4053206C4008013833
:1084B00043EA4063A06B43EAC0630B43D360136895
:1084C00043F080731360D36843F08073D360FDF78B
:1084D0004BFF04461D4B1B6813F0007F06D1FDF7D0
:1084E00043FF001B0228F5D9032028E0002026E0E6
:1084F000164B1A6842F080721A60DA6842F0807295
:10850000DA60FDF731FF0446104B1B6813F0007F63
:1085100006D1FDF729FF031B022BF5D903200EE03E
:1085200000200CE000200AE001207047012006E056
:10853000012004E0012002E0012000E0002003B05F
:10854000F0BD0120FBE70120F9E700BF0010024069
:108550008C809D01002800F0988070B50C4605467F
:108560004E4B1B6803F007038B420BD24B4A136838
:1085700023F007030B431360136803F007038B42D8
:1085800040F085802B6813F0010F39D06B68032B06
:1085900009D0022B26D063BB414A126812F0020FA9
:1085A00006D1012070E03E4A126812F0007F70D0C0
:1085B0003B498A6822F0030213438B60FDF7D4FE27
:1085C0000646374B9B6803F00C036A68B3EB820FD7
:1085D00016D0FDF7C9FE801B41F288339842F0D9CE
:1085E000032051E02E4A126812F4003FE0D101202E
:1085F0004AE02B4A126812F4806FD9D1012043E07F
:108600002B6813F0020F06D0254A936823F0F0037D
:10861000A9680B439360214B1B6803F00703A34237
:108620000AD91E4A136823F0070323431360136813
:1086300003F00703A3422ED12B6813F0040F06D0DA
:10864000174A936823F4E063E9680B4393602B684F
:1086500013F0080F07D0124A936823F46053296976
:1086600043EAC1039360FFF7DBFB0D4B9B68C3F349
:1086700003130C4AD35C03F01F03D8400A4B186065
:108680000A4B1868FDF738FE70BD012070470120C5
:10869000FAE70120F8E70120F6E700BF00200240DA
:1086A00000100240280A01080002002008020020F1
:1086B000014B1868704700BF0002002008B5FFF7A3
:1086C000F7FF054B9B68C3F30223044AD35C03F016
:1086D0001F03D84008BD00BF00100240380A01083F
:1086E00008B5FFF7E5FF054B9B68C3F3C223044AB7
:1086F000D35C03F01F03D84008BD00BF0010024048
:10870000380A0108F8B504460F46584BDB6813F0E9
:10871000030F18D0554BDB6803F003030268934244
:1087200002D001252846F8BD002A00F09D804F4B5D
:10873000DB68C3F3021301334268934201D0012581
:10874000F0E7002509E00368022B56D0032B5BD02D
:10875000012B41D00125002DE4D1444A136823F0B8
:1087600080631360FDF700FE0646404B1B6813F064
:10877000006F05D0FDF7F8FD831B022BF5D903250B
:10878000002DCFD1002F4DD138490B6923F078430C
:1087900023F4FE43A068E268D20642EA00221343B3
:1087A0000B61324A136843F080631360FDF7DCFD10
:1087B00006462E4B1B6813F0006F05D1FDF7D4FD64
:1087C000831B022BF5D90325002DABD1274A136952
:1087D000A1690B431361A5E7244A126812F0020F46
:1087E0001ED02248C26822F073026168013943EA50
:1087F00001131343C3600025ADE71C4A126812F44D
:10880000806FEED10125A6E7184A126812F4003FE6
:10881000E7D1164A126812F4802FE2D101259AE7B7
:10882000012598E7012F0FD01048026922F0C0629D
:1088300022F4FE42A16863695B08013B5B0643EAE0
:10884000012313430361ACE70848026922F4C00224
:1088500022F4FE42A16823695B08013B5B0543EA01
:108860000123134303619CE701255BE700100240ED
:108870002DE9F04182B00446036813F4006F25D05F
:10888000436CB3F5000F06D0B3F5400F12D04BB1D7
:10889000012637461CE0BB4AD36843F48033D360DB
:1088A000002708E000210430FFF72CFF074610B135
:1088B00006460DE00027B34AD2F8883023F440037F
:1088C000616C0B43C2F88830002601E00026374671
:1088D000236813F4003F6BD0AA4B9B6D13F0805FAD
:1088E0004CD1A84B9A6D42F080529A659B6D03F073
:1088F00080530193019B4FF00108A34A136843F48E
:1089000080731360FDF730FD05469F4B1B6813F421
:10891000807F05D1FDF728FD401B0228F5D90327EC
:10892000002F40D1974BD3F8903013F4407315D0FB
:10893000A26D9A4212D0934AD2F8903023F4407339
:10894000D2F8901041F48031C2F89010D2F8901013
:1089500021F48031C2F89010C2F8903013F0010F6A
:108960000FD1002F40F0E380864AD2F8903023F4F4
:108970004073A16D0B43C2F8903015E04FF0000832
:10898000BBE7FDF7F1FC05467E4BD3F8903013F0C2
:10899000020FE6D1FDF7E8FC401B41F28833984214
:1089A000F2D90327DDE73E46B8F1000F40F0C18061
:1089B000236813F0010F08D0724AD2F8883023F0F0
:1089C0000303216A0B43C2F88830236813F0020FB7
:1089D00008D06C4AD2F8883023F00C03616A0B434C
:1089E000C2F88830236813F0040F08D0654AD2F823
:1089F000883023F03003A16A0B43C2F88830236823
:108A000013F0200F08D05F4AD2F8883023F4406377
:108A1000E16A0B43C2F88830236813F4007F08D062
:108A2000584AD2F8883023F44023E16B0B43C2F854
:108A30008830236813F4806F08D0524AD2F8883007
:108A400023F44013216C0B43C2F88830236813F0E1
:108A5000400F08D04B4AD2F8883023F44053216BA2
:108A60000B43C2F88830236813F0800F08D0454AC2
:108A7000D2F8883023F44043616B0B43C2F888304E
:108A8000236813F4807F08D03E4AD2F8883023F45C
:108A90004033A16B0B43C2F88830236813F4002FD6
:108AA0000FD0384AD2F8883023F04063A16C0B43D2
:108AB000C2F88830A36CB3F1006F40D0B3F1806F7F
:108AC00042D0236813F4802F0FD02E4AD2F888307A
:108AD00023F04063E16C0B43C2F88830E36CB3F1E0
:108AE000006F39D0B3F1806F3BD0236813F4804F0F
:108AF0000CD0244AD2F8883023F04053216D0B4328
:108B0000C2F88830236DB3F1805F32D0236813F44C
:108B1000004F08D01B4AD2F8883023F08043616DA3
:108B20000B43C2F88830304602B0BDE8F0813E46C3
:108B30003AE7144A936D23F08053936538E7D3687E
:108B400043F48013D360BCE70121201DFFF7DAFD59
:108B50000028B6D00646B4E7D36843F48013D36048
:108B6000C3E70121201DFFF7CDFD0028BDD006463B
:108B7000BBE70221201DFFF7C5FD0028C6D0064631
:108B8000C4E700BF001002400070004038B5044642
:108B90000268D36823F0A003D360FDF7E5FB054628
:108BA0002368DB6813F0200F07D1FDF7DDFB401BC6
:108BB000B0F57A7FF4D9032000E0002038BD70B50D
:108BC0000368DA6812F0400F02D00025284670BD15
:108BD00004464FF0FF32DA60FDF7C6FB064600257B
:108BE0002368DB6813F0400FF0D1032DEED0FDF7C2
:108BF000BBFB831BB3F57A7FF2D9032584F82150A0
:108C0000EEE7000010B50446104BDA6822F080024F
:108C1000DA609B6813F0200F06D1FFF7B7FF98B119
:108C2000032084F821000FE0084A936823F0200312
:108C30009360FFF7ABFF10B1032084F82100034AD3
:108C4000936843F02003936010BD00BF00280040EC
:108C5000002848D038B5044690F821306BB1022383
:108C600084F821302368CA225A62236853225A6248
:108C70002046FFF7A4FF28B138BD80F82030FDF76B
:108C800085F8ECE72268936823F4E00323F04003BF
:108C9000936021688A68636820690343A06903437D
:108CA00013438B602368E2681A6122681369A16824
:108CB00043EA014313612046FFF7A4FF0028DBD1FC
:108CC0002268D36C23F00303D3642168CB6CE26980
:108CD00065692A431343CB642368FF225A62012348
:108CE00084F82130C8E701207047000030B4036ADF
:108CF00023F001030362036A4468826922F480322C
:108D000022F073020D682A4323F002038D682B437F
:108D1000144DA84207D005F5A055A84203D005F58B
:108D20008065A84205D123F00803CD682B4323F0CA
:108D300004030C4DA84207D005F5A055A84203D066
:108D400005F58065A84205D124F440754C692C4393
:108D50008D692C43446082614A684263036230BC7F
:108D6000704700BF002C014030B4036A23F48073C5
:108D70000362036A4468C26922F4803222F07302FB
:108D80000D682A4323F400738D6843EA0523124DCE
:108D9000A84219D0104DA84207D005F5A055A84209
:108DA00003D005F58065A84207D124F440544D69ED
:108DB00044EA05148D6944EA05144460C2614A68B6
:108DC000C263036230BC704723F40063CD6843EA9A
:108DD000052323F48063DDE7002C014030B4036AEF
:108DE00023F480530362026A4468C36923F08073EA
:108DF00023F4E6430D6843EA052322F400528D680C
:108E000042EA05320B4DA84207D005F5A055A8420D
:108E100003D005F58065A84204D124F480444D694F
:108E200044EA85144460C3614B680364026230BC49
:108E3000704700BF002C014030B4036A23F4803334
:108E40000362036A4468426D22F4803222F07002A9
:108E50000D682A4323F400338D6843EA05430B4D24
:108E6000A84207D005F5A055A84203D005F58065B6
:108E7000A84204D124F480344D6944EA05244460B6
:108E800042654A688265036230BC7047002C01402D
:108E900030B4036A23F480130362026A4468436DAA
:108EA00023F0807323F4E0430D6843EA052322F4A2
:108EB00000128D6842EA05520B4DA84207D005F515
:108EC000A055A84203D005F58065A84204D124F43A
:108ED00080244D6944EA8524446043654B68C3653A
:108EE000026230BC704700BF002C014030B4036AFE
:108EF000056A25F001050562846924F0F00444EA5E
:108F0000021423F00A030B438461036230BC7047F0
:108F100030B4056A25F0100505628469036A24F4FB
:108F2000704444EA023423F0A00343EA011384614D
:108F3000036230BC7047836823F070030B4343F037
:108F4000070383607047000090F83D30DBB2012BCF
:108F500026D1022380F83D300268D36843F0010334
:108F6000D3600368114A93420CD0B3F1804F09D00B
:108F700002F5A052934205D01A6842F001021A602D
:108F80000020704799680A4A0A40062A0AD0B2F5BA
:108F9000803F09D01A6842F001021A600020704731
:108FA000012070470020704700207047002C0140CE
:108FB00007000100704770477047704710B50446BE
:108FC00003681A6912F0020F11D0DA6812F0020F6A
:108FD0000DD06FF002021A610123037703689B69C9
:108FE00013F0030F79D0FFF7E7FF002323772368FF
:108FF0001A6912F0040F12D0DA6812F0040F0ED0C2
:109000006FF004021A610223237723689B6913F42B
:10901000407F68D02046FFF7CFFF002323772368E7
:109020001A6912F0080F12D0DA6812F0080F0ED089
:109030006FF008021A61042323772368DB6913F0B9
:10904000030F57D02046FFF7B7FF0023237723688D
:109050001A6912F0100F12D0DA6812F0100F0ED049
:109060006FF010021A61082323772368DB6913F479
:10907000407F46D02046FFF79FFF002323772368D9
:109080001A6912F0010F03D0DA6812F0010F3FD114
:1090900023681A6912F0800F03D0DA6812F0800F8B
:1090A0003DD123681A6912F4807F03D0DA6812F088
:1090B000800F3BD123681A6912F0400F03D0DA68A1
:1090C00012F0400F39D123681A6912F0200F03D033
:1090D000DA6812F0200F37D110BDFFF76CFF204681
:1090E00001F070F981E72046FFF765FF204601F0A7
:1090F00069F992E72046FFF75EFF204601F062F92A
:10910000A3E72046FFF757FF204601F05BF9B4E7DD
:109110006FF001021A61204601F074F9B8E76FF0B0
:1091200080021A61204600F042FBBAE76FF48072B9
:109130001A61204600F03CFBBCE76FF040021A6168
:109140002046FFF73AFFBEE76FF020021A61204683
:1091500000F02CFBC0E7000003681A4A904202D0DE
:10916000B0F1804F03D123F070034A681343154ACE
:1091700090420AD0B0F1804F07D002F5A052904241
:1091800003D002F58062904203D123F44073CA6891
:10919000134323F080034A69134303608B68C3625F
:1091A0000B688362074B984207D003F5A05398429F
:1091B00003D003F58063984201D10B690363012357
:1091C00043617047002C014060B310B5044690F82D
:1091D0003D3013B3022384F83D30214651F8040B8F
:1091E000FFF7BAFF012384F8483084F83E3084F852
:1091F0003F3084F8403084F8413084F8423084F8BD
:10920000433084F8443084F8453084F8463084F89C
:10921000473084F83D30002010BD80F83C30FCF72A
:10922000C7FDD7E70120704760B310B5044690F83A
:109230003D3013B3022384F83D30214651F8040B2E
:10924000FFF78AFF012384F8483084F83E3084F821
:109250003F3084F8403084F8413084F8423084F85C
:10926000433084F8443084F8453084F8463084F83C
:10927000473084F83D30002010BD80F83C30FFF7C7
:1092800099FED7E70120704730B4036A23F010033A
:109290000362036A4468826922F0807222F4E64223
:1092A0000D6842EA052223F020038D6843EA051386
:1092B000124DA84219D0114DA84207D005F5A0556E
:1092C000A84203D005F58065A84207D124F4406484
:1092D0004D6944EA85048D6944EA850444608261ED
:1092E0004A688263036230BC704723F08003CD6814
:1092F00043EA051323F04003DDE700BF002C0140E3
:1093000038B590F83C30012B00F08C8004460D46B7
:10931000012380F83C30142A1ED8DFE802F00B1D30
:109320001D1D211D1D1D351D1D1D481D1D1D5C1DE7
:109330001D1D6F000068FFF7D9FC2268936943F098
:10934000080393612268936923F004039361226800
:10935000936929690B439361002084F83C0038BD70
:109360000068FFF791FF2268936943F400639361FB
:109370002268936923F48063936122689369296961
:1093800043EA01239361E7E70068FFF7EDFC2268F9
:10939000D36943F00803D3612268D36923F004033F
:1093A000D3612268D36929690B43D361D4E700688C
:1093B000FFF714FD2268D36943F40063D361226888
:1093C000D36923F48063D3612268D369296943EAAE
:1093D0000123D361C0E70068FFF72EFD2268536DBB
:1093E00043F0080353652268536D23F0040353656B
:1093F0002268536D29690B435365ADE70068FFF799
:1094000047FD2268536D43F4006353652268536D32
:1094100023F4806353652268536D296943EA01236D
:10942000536599E702209AE710B4846824F47F44D6
:1094300042EA03220A43224382605DF8044B7047EC
:1094400090F83C30012B64D010B50446012380F81D
:109450003C30022380F83D30026890682E4B034078
:1094600093600B68602B40D022D8402B47D00BD99B
:10947000502B0ED1CA6849682068FFF737FD50218C
:109480002068FFF758FD04E0202B0CD008D9302BC2
:1094900009D0012384F83D30002084F83C0010BD41
:1094A0000BB1102BF5D119462068FFF744FDF0E70A
:1094B000702B0ED0B3F5005FEBD1CB684A6889689A
:1094C0002068FFF7B1FF2268936843F480439360FC
:1094D000DFE7CB684A6889682068FFF7A5FF226844
:1094E000936843F077039360D3E7CA6849682068BC
:1094F000FFF70EFD60212068FFF71DFDC9E7CA6870
:1095000049682068FFF7F2FC40212068FFF713FD4F
:10951000BFE70220704700BF8800FEFF10B401F0D3
:109520001F01012303FA01F4036A23EA040303621F
:10953000036A02FA01F10B4303625DF8044B7047C2
:1095400010B504460846C1B994F83E30DBB2013B81
:1095500018BF0123002B40F0A280002838D102233D
:1095600084F83E300C2854D8DFE800F04E535353B3
:10957000795353537F535353850004290CD0082942
:1095800011D00C2916D010291BD094F84330DBB22F
:10959000013B18BF0123DDE794F83F30DBB2013B0C
:1095A00018BF0123D6E794F84030DBB2013B18BF67
:1095B0000123CFE794F84130DBB2013B18BF012310
:1095C000C8E794F84230DBB2013B18BF0123C1E782
:1095D000042809D008280BD00C280DD010280FD053
:1095E000022384F84330BDE7022384F83F30B9E713
:1095F000022384F84030B5E7022384F84130B1E714
:10960000022384F84230ADE72268D36843F00203B6
:10961000D360012201462068FFF780FF2368234AB8
:10962000934207D002F5A052934203D002F5806224
:10963000934203D15A6C42F400425A6423681B4A95
:1096400093421ED0B3F1804F1BD002F5A05293423B
:1096500017D01A6842F001021A60002020E0226848
:10966000D36843F00403D360D3E72268D36843F0A0
:109670000803D360CDE72268D36843F01003D360BA
:10968000C7E799680A4A0A40062A0AD0B2F5803F1D
:1096900009D01A6842F001021A60002000E001209F
:1096A00010BD0020FCE70020FAE700BF002C0140BD
:1096B0000700010090F83C30012B2FD030B401237B
:1096C00080F83C30022380F83D300268536895688A
:1096D000134CA2421DD023F070030C682343536047
:1096E00003680F4A934206D0B3F1804F03D002F5CE
:1096F000A052934204D125F080058A6815439D60ED
:10970000012380F83D30002380F83C30184630BCFF
:10971000704723F470034C682343DCE70220704752
:10972000002C014090F83C30012B3BD010B40123B9
:1097300080F83C30CB6823F440738A68134323F4E9
:1097400080634A68134323F400630A68134323F4D5
:1097500080530A69134323F400534A69134323F4E3
:1097600080438A6A134323F470238A6943EA0243DD
:1097700002680D4CA24207D05364002380F83C30AD
:1097800018465DF8044B704723F470034C6A43EAB3
:10979000045323F08073CC69234323F00073096AD8
:1097A0000B43E9E702207047002C014070477047E7
:1097B00070470268136823F0C003136020234367D7
:1097C00070470268136823F490731360026893680B
:1097D00023F001039360202383670023036670470F
:1097E000C0B138B50546242343670268136823F0E7
:1097F00001031360036800241C6003685C60036855
:109800009C60FCF743FCEC676C67AC6785F87040C4
:10981000204638BD01207047436F202B40D110B542
:10982000044600293ED0002A3ED090F87030012B2B
:109830003CD0012380F87030C164A0F85020A0F81B
:1098400052200023C36721234367836EE3B1184985
:10985000D962836E17491963836E17495963836E02
:10986000002199630168134601F12802C16C806EE2
:10987000FDF7C4FB40B11023E367002384F8703088
:109880002023636701200AE0236840221A62002037
:1098900084F870002268936843F08003936010BDE1
:1098A000022070470120FAE70120F8E70220F6E7DE
:1098B000599A0008A79A0008FB9A0008836F202B8A
:1098C00044D110B50446002942D0002A42D090F875
:1098D0007030012B40D0012380F870304165A0F832
:1098E00058200023C36722238367C36EDBB11B4963
:1098F000D962C36E1A491963C36E1A495963C36E9C
:109900000021996301681346426D2431C06EFDF752
:1099100075FB40B11023E367002384F870302023E7
:109920006367012011E0002084F87000226813684A
:1099300043F4807313602268936843F001039360DB
:109940002268936843F04003936010BD0220704783
:109950000120FAE70120F8E70220F6E7B19A0008B3
:10996000F19A0008FB9A000838B50446416F856FEC
:1099700003689A6812F0800F01D0212908D023686B
:109980009A6812F0400F30D0222D17D000202DE021
:109990009A6822F080029A60806E10B1FDF769FB30
:1099A00018B92046FFF705FFE9E7A06EFDF710FCA8
:1099B0002028F6D11023E367032017E09A6822F0ED
:1099C00040029A60E06E10B1FDF753FB20B92046CB
:1099D000FFF7F7FE002009E0E06EFDF7F9FB202815
:1099E000F5D11023E367032000E0002038BD10B557
:1099F00004460268136823F4907313600268936846
:109A000023F00103936003689A6812F0400F0BD0B3
:109A10009A6822F040029A60C36E2BB100229A63CA
:109A2000C06EFDF726FB70B90020A4F85A00236829
:109A30000F221A622268138B9BB243F00803138330
:109A40002023A36710BDE06EFDF7C2FB2028EBD1F9
:109A50001023E3670320F5E708B50346806A1B6817
:109A60001B6813F0200F0DD10023A0F852300268BC
:109A7000936823F0800393600268136843F0400307
:109A8000136008BD00F01AFCFBE708B501680A681E
:109A900022F040020A60202242670022426600F063
:109AA0000DFC08BD704708B5806AFFF7FBFF08BDD5
:109AB00008B50346806A1B681B6813F0200F13D19A
:109AC0000023A0F85A300268136823F480731360EF
:109AD0000268936823F0010393600268936823F09F
