:020000040800F2
:2000000000000120C9080008D1070008DF070008E5070008EB070008F1070008000000002A
:20002000000000000000000000000000F70700080508000800000000130800082108000851
:20004000190900081909000819090008190900081909000819090008190900081909000850
:20006000190900081909000819090008190900081909000819090008190900081909000830
:20008000190900081909000819090008190900081909000819090008190900082D080008FD
:2000A000190900081909000819090008190900081909000800000000000000001909000844
:2000C0001909000819090008190900081909000819090008190900081909000819090008D0
:2000E0003D0800081909000800000000000000000000000000000000000000000000000089
:20010000000000001909000800000000190900080000000000000000190900081909000837
:200120001909000819090008190900081909000819090008000000000000000000000000ED
:20014000190900081909000819090008000000001909000819090008190900081909000879
:200160001909000819090008190900080000000019090008190900080000000000000000AD
:2001800019090008190900081909000810B5054C237833B9044B13B10448AFF3008001239F
:2001A000237010BD0C000020000000006435000808B5034B1BB103490348AFF3008008BDBD
:2001C00000000000100000206435000880B584B000AF144B7B6002F009F8134B00221A600F
:2001E000114B00225A60104B00229A6072B600BF0E4B1B6823F007030C4A43F00103136070
:200200007B6804331B68FB607B681B68BB60BB6883F3088800BFFB68984700BF1037BD4632
:2002200080BD00BF0000FF1F10E000E00000014090B587B000AF00F070FB00F057F800F0DE
:200240005DF900F039F900F0D3F800224FF400411F4801F011FF00F0C9FB78617B6903F1F8
:20026000640400F0C3FB03469C4207D240214FF0904001F019FF00F0B9FB7861154B3B6176
:200280003B699B081A461449144801F0E1FBF860134B1B68BB60FA68BB689A4208D0012281
:2002A00040214FF0904001F0E7FEFFF78FFFD5E70C4B1B681A460C4B1A60074B1B687B60FD
:2002C0007B6883F3088800BF074B1B689847C5E700040048FCBF030000400008280000207C
:2002E000FCFF030804400008B000002080B5AEB000AF07F1740344220021184603F02AF930
:2003000007F1600300221A605A609A60DA601A613B1D5C220021184603F01CF910237B670B
:200320000123C7F88C300023C7F890306023C7F894300223C7F89C300123C7F8A0300123EF
:20034000C7F8A4301023C7F8A8300723C7F8AC300223C7F8B0300223C7F8B43007F1740380
:20036000184601F0DBFF0346002B01D000F08CF90F233B6603237B660023BB660023FB66F8
:2003800000233B6707F160030121184602F0E6FB0346002B01D000F077F94FF480437B6064
:2003A0004FF080537B650123BB600123FB6010233B6107237B610223BB610223FB614FF0B7
:2003C00080733B623B1D184602F096FD0346002B01D000F059F94FF4007001F0B1FE03462F
:2003E000002B01D000F050F900BFB837BD4680BD80B586B000AF3B4600221A605A609A60EF
:20040000DA601A615A61294B294A1A60274B00225A60264B00229A60244B0022DA60234BF7
:2004200000221A61214B04225A61204B00221A761E4B00225A761D4B0122DA611B4B00220C
:2004400083F82020194B00229A62184B0022DA62164B002283F83020144B00225A63134BB4
:20046000002283F83820114800F058FC0346002B01D000F009F90F4B3B6006237B60002397
:20048000BB607F23FB6004233B6100237B613B461946064800F088FD0346002B01D000F0AA
:2004A000F3F800BF1837BD4680BD00BF4C000020000004502000F01480B500AF0D4B0E4ACC
:2004C0001A600C4B00221A710A4B00225A71094B00225A61074B00229A61064B03221A62CA
:2004E000044801F051FA0346002B01D000F0CCF800BF80BD280000200030024080B588B058
:2005000000AF07F10C0300221A605A609A60DA601A61594BDB6C584A43F00403D364564B81
:20052000DB6C03F00403BB60BB68534BDB6C524A43F00103D364504BDB6C03F001037B6099
:200540007B684D4BDB6C4C4A43F00203D3644A4BDB6C03F002033B603B6800224FF400510C
:20056000464801F089FD00224FF4C2514FF0904001F082FD00224AF26601414801F07CFDC7
:200580004FF40053FB6001233B6100237B610023BB6107F10C031946384801F0F3FB202364
:2005A000FB6000233B6100237B6107F10C0319464FF0904001F0E6FB4FF4C253FB60012304
:2005C0003B6100237B610023BB6107F10C0319464FF0904001F0D6FB4AF26603FB600123E6
:2005E0003B6100237B610023BB6107F10C031946234801F0C7FB4FF4AA43FB60214B3B610A
:2006000000237B6107F10C0319461D4801F0BAFB4FF42863FB6000233B6100237B6107F18B
:200620000C031946164801F0ADFB4FF48073FB6002233B6100237B610023BB610123FB6145
:2006400007F10C0319464FF0904001F09BFB00220021172001F061F9172001F07AF900221C
:200660000021282001F059F9282001F072F900BF2037BD4680BD00BF001002400008004873
:20068000000400480000111080B400AF00BFBD465DF8047B7047000080B483B000AF0F4B4D
:2006A0001B6E0E4A43F0010313660C4B1B6E03F001037B607B68094B9B6D084A43F0805360
:2006C0009365064B9B6D03F080533B603B6800BF0C37BD465DF8047B704700BF0010024024
:2006E00080B58AB000AF786007F1140300221A605A609A60DA601A617B681B68214A93424A
:200700003CD1214BDB6C204A43F40053D3641E4BDB6C03F400533B613B691B4BDB6C1A4AA3
:2007200043F00103D364184BDB6C03F00103FB60FB68154BDB6C144A43F00203D364124B1B
:20074000DB6C03F00203BB60BB6813237B610B23BB610023FB6107F1140319464FF09040C4
:2007600001F010FB01237B610B23BB610023FB6107F114031946054801F004FB00BF2837EB
:20078000BD4680BD00000450001002400004004880B485B000AF78607B681B680A4A9342A8
:2007A0000BD10A4B9B6C094A43F480539364074B9B6C03F48053FB60FB6800BF1437BD46BF
:2007C0005DF8047B704700BF003002400010024080B400AF00BFBD465DF8047B704780B4A7
:2007E00000AFFEE780B400AFFEE780B400AFFEE780B400AFFEE780B400AF00BFBD465DF813
:20080000047B704780B400AF00BFBD465DF8047B704780B400AF00BFBD465DF8047B704742
:2008200080B500AF00F0CEF800BF80BD80B500AF4FF4807001F052FC00BF80BD80B500AFEC
:200840004FF4806001F04AFC4FF4805001F046FC4FF4804001F042FC00BF80BD80B400AFE7
:20086000174BD3F88830164A43F47003C2F88830144B1B68134A43F001031360114B0022B0
:200880009A60104B1B680F4A23F0A85323F4102313600C4B4FF48052DA600A4B1B68094A8B
:2008A00023F480231360074B00229A61044B4FF000629A6000BFBD465DF8047B704700BFA6
:2008C00000ED00E000100240DFF834D0FFF7C6FF002103E00B4B5B58435004310A480B4BE6
:2008E00042189A42F6D30A4A02E0002342F8043B084B9A42F9D302F009FEFFF799FCFEE7C3
:2009000000000120C4350008000000200C0000200C000020B8000020FEE780B582B000AF6A
:200920000023FB71032000F0EDFF002000F00EF80346002B02D00123FB7101E0FFF7ACFEBC
:20094000FB7918460837BD4680BD000080B584B000AF78600023FB73174B1B78002B23D0B2
:20096000164B1A68144B1B7819464FF47A73B3FBF1F3B2FBF3F3184600F0F9FF0346002B34
:200980000FD17B680F2B09D8002279684FF0FF3000F0C3FF0A4A7B68136007E00123FB7333
:2009A00004E00123FB7301E00123FB73FB7B18461037BD4680BD00BF0800002000000020EC
:2009C0000400002080B400AF064B1B781A46064B1B681344044A136000BFBD465DF8047B4A
:2009E000704700BF08000020B400002080B400AF034B1B681846BD465DF8047B704700BF26
:200A0000B400002080B483B000AF786039607B689B6823F47C123B681A437B689A6000BF54
:200A20000C37BD465DF8047B704780B483B000AF786039607B689B6823F0E0723B681A4313
:200A40007B689A6000BF0C37BD465DF8047B704780B483B000AF78607B689B6803F0E0730F
:200A600018460C37BD465DF8047B704780B487B000AFF860B9607A603B60FB6860331A46F1
:200A8000BB689B0013447B617B691A68084B13407A6802F0F8413A680A43134343F0004292
:200AA0007B691A6000BF1C37BD465DF8047B704700F0FF0380B485B000AF786039607B68DA
:200AC00060331A463B689B001344FB60FB681B6803F0F84318461437BD465DF8047B7047E8
:200AE00080B487B000AFF860B9607A60FB6860331A46BB689B0013447B617B691B6823F0D0
:200B000000427B681A437B691A6000BF1C37BD465DF8047B704780B487B000AFF860B960CA
:200B20007A60FB6830331A46BB681B0A9B0003F00C0313447B617B691A68BB6803F01F03FF
:200B40001F2101FA03F3DB431A407B689B0E03F01F01BB6803F01F0301FA03F31A437B69E3
:200B60001A6000BF1C37BD465DF8047B704780B487B000AFF860B9607A60FB6814331A46EC
:200B8000BB685B0E9B0003F0040313447B617B691A68BB681B0D03F01F03072101FA03F322
:200BA000DB431A40BB681B0D03F01F03796801FA03F31A437B691A6000BF1C37BD465DF866
:200BC000047B704780B485B000AFF860B9607A60FB68D3F8B020BB68C3F31203DB431A4018
:200BE0007B6803F018030849D940BB680B40C3F312031A43FB68C3F8B02000BF1437BD4609
:200C00005DF8047B704700BFFFFF070080B483B000AF78607B689B6823F0204323F03F03E6
:200C20007A68936000BF0C37BD465DF8047B704780B483B000AF78607B689B6803F0005335
:200C4000B3F1005F01D1012300E0002318460C37BD465DF8047B704780B483B000AF78607B
:200C60007B689B6823F0104323F03F0343F080527B689A6000BF0C37BD465DF8047B704761
:200C800080B483B000AF78607B689B6803F08053B3F1805F01D1012300E0002318460C379D
:200CA000BD465DF8047B704780B483B000AF78607B689B6803F00103012B01D1012300E0D9
:200CC000002318460C37BD465DF8047B704780B483B000AF78607B689B6803F00403042BC5
:200CE00001D1012300E0002318460C37BD465DF8047B704780B483B000AF78607B689B68F8
:200D000003F00803082B01D1012300E0002318460C37BD465DF8047B7047000080B588B00D
:200D200000AF78600023FB770023BB607B68002B01D101232AE17B681B69002B7B685B6D0D
:200D4000002B09D17868FFF7CBFC7B6800229A657B68002283F850207B681B681846FFF743
:200D600067FF0346002B04D07B681B681846FFF74DFF7B681B681846FFF782FF0346002B10
:200D800013D17B681B681846FFF766FF814B1B689B09814AA2FB03239B09BB6002E0BB680B
:200DA000013BBB60BB68002BF9D17B681B681846FFF766FF0346002B0DD17B685B6D43F075
:200DC00010027B685A657B689B6D43F001027B689A650123FB777B681B681846FFF777FF96
:200DE00078617B685B6D03F01003002B40F0C5807B69002B40F0C1807B685B6D23F4817393
:200E000043F002027B685A657B681B681846FFF74BFF0346002B0BD16048FFF745FF03467A
:200E2000002B05D17B685B6819465D48FFF7EAFD7B685B7E5A037B685B6B1A437B68DB68E5
:200E40001A437B689B681A437B6893F820301B041343BB617B6893F82030012B06D17B68FF
:200E60005B6A013B5B04BA691343BB617B689B6A002B09D07B689B6A03F470727B68DB6AA8
:200E80001343BA691343BB617B681B68DA68454B13407A681268B9690B43D3607B681B6877
:200EA0001846FFF714FF38617B681B681846FFF721FFF8603B69002B3DD1FB68002B3AD18A
:200EC0007B681B7E9A037B6893F830305B001343BB617B681B68DB6823F4804323F00203C3
:200EE0007A681268B9690B43D3607B6893F83830012B18D17B681B681B6923F4FF6323F092
:200F000004037A68D16B7A68126C11437A68526C11437A68926C0A431A437B681B6842F0E2
:200F200001021A6107E07B681B681A697B681B6822F001021A617B681B69012B0CD17B681A
:200F40001B681B6B23F00F017B68DB695A1E7B681B680A431A6307E07B681B681A6B7B68E1
:200F60001B6822F00F021A637B685B6D23F0030343F001027B685A6507E07B685B6D43F0ED
:200F800010027B685A650123FB77FB7F18462037BD4680BD00000020632D3E050000045051
:200FA0000003045007C0F0FF80B5B6B000AF78603960002387F8D7300023FB607B6893F8D4
:200FC0005030012B01D10223B8E37B68012283F850207B681B681846FFF779FE0346002B3D
:200FE00040F09D833B685B68052B24D83B685B68023B032B1BD801A252F823F00D10000826
:20100000151000081D100008251000083B680C225A6011E03B6812225A600DE03B6818225A
:201020005A6009E03B684FF480725A6004E03B6806225A6000E000BF7B6818683B685968AC
:201040003B681B681A46FFF766FD7B681B681846FFF73DFEC7F8D0007B681B681846FFF773
:2010600049FEC7F8CC00D7F8D030002B40F0A681D7F8CC30002B40F0A1817B6818683B68FF
:2010800019683B689B681A46FFF771FD3B685A697B681B68DB68DB0803F003035B0002FA23
:2010A00003F3C7F8C8303B681B69042B0AD07B6818683B6819693B681A68D7F8C830FFF7E9
:2010C000D5FC7BE17B681B6800211846FFF7F2FC0346C3F31203002B0AD17B681B68002179
:2010E0001846FFF7E7FC03469B0E03F01F021EE07B681B6800211846FFF7DCFC0346C7F8FA
:20110000BC30D7F8BC3093FAA3F3C7F8B830D7F8B830C7F8C030D7F8C030002B01D12023F9
:2011200004E0D7F8C030B3FA83F3DBB21A463B681B68C3F31203002B05D13B681B689B0E3B
:2011400003F01F0318E03B681B68C7F8B030D7F8B03093FAA3F3C7F8AC30D7F8AC30C7F8E6
:20116000B430D7F8B430002B01D1202304E0D7F8B430B3FA83F3DBB29A4206D17B681B6838
:20118000002200211846FFF7ABFC7B681B6801211846FFF78FFC0346C3F31203002B0AD190
:2011A0007B681B6801211846FFF784FC03469B0E03F01F021EE07B681B6801211846FFF7F3
:2011C00079FC0346C7F8A430D7F8A43093FAA3F3C7F8A030D7F8A030C7F8A830D7F8A8308C
:2011E000002B01D1202304E0D7F8A830B3FA83F3DBB21A463B681B68C3F31203002B05D122
:201200003B681B689B0E03F01F0318E03B681B68C7F89830D7F8983093FAA3F3C7F8943008
:20122000D7F89430C7F89C30D7F89C30002B01D1202304E0D7F89C30B3FA83F3DBB29A42AA
:2012400006D17B681B68002201211846FFF748FC7B681B6802211846FFF72CFC0346C3F371
:201260001203002B0AD17B681B6802211846FFF721FC03469B0E03F01F021EE07B681B68EF
:2012800002211846FFF716FC0346C7F88C30D7F88C3093FAA3F3C7F88830D7F88830C7F896
:2012A0009030D7F89030002B01D1202304E0D7F89030B3FA83F3DBB21A463B681B68C3F340
:2012C0001203002B05D13B681B689B0E03F01F0316E03B681B68C7F88030D7F8803093FA7D
:2012E000A3F3FB67FB6FC7F88430D7F88430002B01D1202304E0D7F88430B3FA83F3DBB23F
:201300009A4206D17B681B68002202211846FFF7E7FB7B681B6803211846FFF7CBFB03464C
:20132000C3F31203002B0AD17B681B6803211846FFF7C0FB03469B0E03F01F0217E07B6863
:201340001B6803211846FFF7B5FB03467B677B6F93FAA3F33B673B6FBB67BB6F002B01D115
:20136000202303E0BB6FB3FA83F3DBB21A463B681B68C3F31203002B05D13B681B689B0E4C
:2013800003F01F0311E03B681B68BB66BB6E93FAA3F37B667B6EFB66FB6E002B01D12023E0
:2013A00003E0FB6EB3FA83F3DBB29A4206D17B681B68002203211846FFF792FB7B681B688B
:2013C0001846FFF771FC0346002B40F03F817B6818683B6819683B68DB681A46FFF7F2FB38
:2013E0003B68DB688E4A934240F030817B6818683B681B68C3F31203002B0BD13B681B68F8
:201400009B0E013303F01F03092B94BF01230023DBB219E03B681B68FB65FB6D93FAA3F375
:20142000BB65BB6D3B663B6E002B01D1202303E03B6EB3FA83F3DBB2013303F01F03092B21
:2014400094BF01230023DBB2002B79D03B681B68C3F31203002B07D13B681B689B0E0133FA
:201460009B0603F0F84215E03B681B683B653B6D93FAA3F3FB64FB6C7B657B6D002B01D18D
:20148000202303E07B6DB3FA83F3DBB201339B0603F0F8423B681B68C3F31203002B09D196
:2014A0003B681B689B0E013303F01F03012101FA03F317E03B681B687B647B6C93FAA3F3FB
:2014C0003B643B6CBB64BB6C002B01D1202303E0BB6CB3FA83F3DBB2013303F01F0301211B
:2014E00001FA03F342EA03013B681B68C3F31203002B0AD13B681B689B0E013303F01F02BD
:2015000013465B0013441B0518E03B681B68BB63BB6B93FAA3F37B637B6BFB63FB6B002B68
:2015200001D1202303E0FB6BB3FA83F3DBB2013303F01F0213465B0013441B050B4380E07C
:201540003B681B68C3F31203002B07D13B681B689B0E01339B0603F0F84215E03B681B68AB
:20156000FB62FB6A93FAA3F3BB62BB6A3B633B6B002B01D1202303E03B6BB3FA83F3DBB287
:2015800001339B0603F0F8423B681B68C3F31203002B09D13B681B689B0E013303F01F033B
:2015A000012101FA03F317E03B681B683B623B6A93FAA3F3FB61FB697B627B6A002B01D117
:2015C000202303E07B6AB3FA83F3DBB2013303F01F03012101FA03F342EA03013B681B689E
:2015E000C3F31203002B0DD13B681B689B0E013303F01F0213465B0013441E3B1B0543F049
:2016000000731DE03B681B687B617B6993FAA3F33B613B69BB61BB69002B03D1202305E0AA
:2016200000007F40BB69B3FA83F3DBB2013303F01F0213465B0013441E3B1B0543F00073A5
:201640000B433A6892681946FFF791FA3B681A683C4B1340002B6BD03B48FFF7F9F9C7F831
:20166000C4003B681B68394A934226D1D7F8C43003F40003002B20D17B681B68344A93429F
:2016800056D1D7F8C43043F4000319462E48FFF7CCF9304B1B689B092F4AA2FB03239A0915
:2016A00013465B0013449B00FB6002E0FB68013BFB60FB68002BF9D13AE03B681B68274A44
:2016C000934213D1D7F8C43003F08073002B0DD17B681B681E4A93422AD1D7F8C43043F00B
:2016E000807319461848FFF7A0F921E03B681B681B4A93421CD1D7F8C43003F48003002BF3
:2017000016D17B681B68124A934211D1D7F8C43043F4800319460C48FFF787F908E07B68F8
:201720005B6D43F020027B685A65012387F8D7307B68002283F8502097F8D7301846D8374D
:20174000BD4680BD0000088000030450000052C70000045000000020632D3E05000084CBBB
:201760000100008080B485B000AF78607B6803F00703FB600C4BDB68BB60BA684FF6FF039F
:201780001340BB60FB681A02BB68134343F0BF6343F40033BB60044ABB68D36000BF14375B
:2017A000BD465DF8047B704700ED00E080B400AF044BDB681B0A03F007031846BD465DF881
:2017C000047B704700ED00E080B483B000AF0346FB7197F90730002B0BDBFB7903F01F02DB
:2017E000074997F907305B09012000FA02F241F8232000BF0C37BD465DF8047B704700BF94
:2018000000E100E080B483B000AF03463960FB7197F90730002B0ADB3B68DAB20C4997F9B8
:2018200007301201D2B20B4483F800230AE03B68DAB20849FB7903F00F03043B1201D2B234
:201840000B441A7600BF0C37BD465DF8047B704700E100E000ED00E080B489B000AFF86017
:20186000B9607A60FB6803F00703FB61FB69C3F10703042B28BF0423BB61FB690433062B72
:2018800002D9FB69033B00E000237B614FF0FF32BB6902FA03F3DA43BB681A407B699A400E
:2018A0004FF0FF317B6901FA03F3D9437B680B40134318462437BD465DF8047B70470000FD
:2018C00080B582B000AF78607B68013BB3F1807F01D301230FE00A4A7B68013B53600F211B
:2018E0004FF0FF30FFF78EFF054B00229A60044B07221A60002318460837BD4680BD00BFDA
:2019000010E000E080B582B000AF78607868FFF729FF00BF0837BD4680BD80B586B000AFB3
:201920000346B9607A60FB7300237B61FFF73EFF78617A68B9687869FFF78EFF024697F9B3
:201940000F3011461846FFF75DFF00BF1837BD4680BD80B582B000AF0346FB7197F9073061
:201960001846FFF731FF00BF0837BD4680BD80B582B000AF78607868FFF7A2FF0346184699
:201980000837BD4680BD000080B582B000AF78607B68002B01D1012354E07B685B7FDBB258
:2019A000002B05D17B6800221A777868FEF7F0FE7B6802225A777B681B79002B0CD17B6893
:2019C0001B68224A5A617B681B689A687B681B6822F018029A600CE07B6899687B68DB6873
:2019E0001A46786800F048F90346002B01D0012328E07B685B79002B05D17B681B684FF0A8
:201A0000FF321A6104E07B681B687A6812691A617B681B689B6823F060017B685A697B6892
:201A20001B680A439A607B681B689B6823F080017B689A697B681B680A439A607B68012246
:201A40005A77002318460837BD4680BDB71DC10480B586B000AFF860B9607A6000233B61F8
:201A6000FB6802225A77FB681B689A68FB681B6842F001029A60FB681B6A032B06D0032BF7
:201A800029D8012B19D0022B1ED024E000237B610AE07B699B00BA681A44FB681B681268C9
:201AA0001A607B6901337B617A697B689A42F0D3FB681B681B683B610EE07A68B968F868FD
:201AC00000F012F8386107E07A68B968F86800F099F8386100E000BFFB6801225A773B6975
:201AE00018461837BD4680BD80B489B000AFF860B9607A600023FB6123E0FB699B00BA68EF
:201B000013441B781A06FB699B000133B9680B441B781B041A43FB699B000233B9680B4465
:201B20001B781B021A43FB699B000333B9680B441B781946FB681B680A431A60FB690133BC
:201B4000FB617B689B08FA699A42D6D37B6803F00303002B4DD07B6803F00303012B07D1B7
:201B6000FB699B00BA681344FA6812681B7813707B6803F00303022B16D1FB699B00BA68EA
:201B800013441B781B021AB2FB699B000133B9680B441B781BB213431BB27B83FB681B6868
:201BA0007B617B697A8B1A807B6803F00303032B1FD1FB699B00BA6813441B781B021AB2D8
:201BC000FB699B000133B9680B441B781BB213431BB27B83FB681B687B617B697A8B1A809C
:201BE000FB699B000233BA681344FA6812681B781370FB681B681B6818462437BD465DF8CC
:201C0000047B704780B487B000AFF860B9607A6000237B6113E07B699B00BA6813441B889C
:201C20001A047B699B000233B9680B441B881946FB681B680A431A607B6901337B617B68DC
:201C40005B087A699A42E6D37B6803F00103002B09D0FB681B683B617B699B00BA68134451
:201C60001A883B691A80FB681B681B6818461C37BD465DF8047B704780B487B000AFF8606A
:201C8000B9607A600023FB751F233B6100BF3B695A1E3A61002B09D03B6903F01F03BA688B
:201CA00022FA03F303F00103002BF0D07B68182B46D801A252F823F0471D0008411D00081A
:201CC000411D0008411D0008411D0008411D0008411D0008411D0008351D0008411D0008E0
:201CE000411D0008411D0008411D0008411D0008411D0008411D0008291D0008411D0008CC
:201D0000411D0008411D0008411D0008411D0008411D0008411D00081D1D00083B69062B48
:201D200013D90123FB7510E03B69072B0FD90123FB750CE03B690F2B0BD90123FB7508E0B7
:201D40000123FB7506E000BF04E000BF02E000BF00E000BFFB7D002B0DD1FB681B68BA68DE
:201D60005A61FB681B689B6823F01801FB681B687A680A439A60FB7D18461C37BD465DF803
:201D8000047B704780B487B000AF7860396000237B6154E13B681A6801217B6901FA03F332
:201DA0001340FB60FB68002B00F046813B685B68012B0BD03B685B68022B07D03B685B68F3
:201DC000112B03D03B685B68122B30D17B689B683B617B695B00032202FA03F3DB433A69B7
:201DE00013403B613B68DA687B695B0002FA03F33A6913433B617B683A699A607B685B6823
:201E00003B6101227B6902FA03F3DB433A6913403B613B685B681B0903F001027B6902FA1D
:201E200003F33A6913433B617B683A695A607B68DB683B617B695B00032202FA03F3DB43A1
:201E40003A6913403B613B689A687B695B0002FA03F33A6913433B617B683A69DA603B6822
:201E60005B68022B03D03B685B68122B23D17B69DA087B68083253F822303B617B6903F015
:201E800007039B000F2202FA03F3DB433A6913403B613B681A697B6903F007039B0002FA2C
:201EA00003F33A6913433B617B69DA087B680832396943F822107B681B683B617B695B0064
:201EC000032202FA03F3DB433A6913403B613B685B6803F003027B695B0002FA03F33A6909
:201EE00013433B617B683A691A603B685B6803F08053002B00F0A080584B1B6E574A43F089
:201F000001031366554B1B6E03F00103BB60BB68534A7B699B08023352F823303B617B6970
:201F200003F003039B000F2202FA03F3DB433A6913403B617B68B3F1904F19D07B68494A75
:201F4000934213D07B68484A93420DD07B68474A934207D07B68464A934201D1042308E059
:201F6000072306E0032304E0022302E0012300E000237A6902F00302920093403A691343E1
:201F80003B6137497B699B0802333A6941F82320384B1B683B61FB68DB433A6913403B6195
:201FA0003B685B6803F48033002B03D03A69FB6813433B612F4A3B6913602E4B5B683B61B3
:201FC000FB68DB433A6913403B613B685B6803F40033002B03D03A69FB6813433B61254AF9
:201FE0003B695360234B9B683B61FB68DB433A6913403B613B685B6803F48013002B03D07C
:202000003A69FB6813433B611A4A3B699360194BDB683B61FB68DB433A6913403B613B68D4
:202020005B6803F40013002B03D03A69FB6813433B61104A3B69D3607B6901337B613B6815
:202040001A687B6922FA03F3002B7FF4A3AE00BF00BF1C37BD465DF8047B70470010024068
:20206000000001400004004800080048000C0048001000480004014080B483B000AF7860A4
:202080000B467B8013467B707B78002B03D07A887B689A6102E07A887B689A6200BF0C371A
:2020A000BD465DF8047B704780B485B000AF78600B467B807B685B69FB607A88FB6813409C
:2020C0001A04FB68D9437B880B401A437B689A6100BF1437BD465DF8047B704780B582B0DB
:2020E00000AF0346FB80084B5A69FB881340002B06D0054AFB885361FB88184600F006F82B
:2021000000BF0837BD4680BD0004014080B483B000AF0346FB8000BF0C37BD465DF8047B89
:202120007047000080B400AF044B1B6803F4C0631846BD465DF8047B704700BF00700040BE
:2021400080B485B000AF78607B68B3F5007F30D1234B1B6803F4C063B3F5007F38D0204BDF
:202160001B6823F4C0631E4A43F4007313601D4B1B68322202FB03F31B4AA2FB03239B0C1C
:202180000133FB6002E0FB68013BFB60144B5B6903F48063B3F5806F02D1FB68002BF2D11C
:2021A0000F4B5B6903F48063B3F5806F10D103230FE00B4B1B6803F4C063B3F5806F07D039
:2021C000074B1B6823F4C063054A43F480631360002318461437BD465DF8047B704700BFFB
:2021E000007000400000002083DE1B4380B582B000AF454B1B68444A43F001031360FEF7FA
:20220000F5FB786008E0FEF7F1FB02467B68D31A022B01D9032373E03B4B1B6803F0020394
:20222000002BF0D0384B1B6823F0F003364A43F060031360344B00229A60344B344A1A600C
:20224000344B1B681846FEF781FB0346002B01D0012355E0FEF7CAFB78600AE0FEF7C6FBDD
:2022600002467B68D31A41F28832934201D9032346E0254B9B6803F00C03002BEED1224B92
:202280001A682149244B13400B60FEF7AFFB786008E0FEF7ABFB02467B68D31A022B01D90C
:2022A00003232DE0184B1B6803F02063002BF0D1154B0022DA60144BDB68134A43F48053DE
:2022C000D360114B00221A610F4B1B690E4A43F4805313610C4B1B680B4A23F480231360C2
:2022E000094B00229A61084B4FF0FF321A62064BD3F89430044A43F40003C2F89430002325
:2023000018460837BD4680BD001002400000002000093D0004000020FFF4FEFA80B588B0AC
:2023200000AF78607B68002B02D1012300F011BCA04B9B6803F00C03BB619E4BDB6803F029
:2023400003037B617B681B6803F01003002B00F0E480BB69002B07D0BB690C2B40F08B80F4
:202360007B69012B40F08780924B1B6803F00203002B05D07B689B69002B01D10123E8E3EB
:202380007B681A6A8B4B1B6803F00803002B04D0884B1B6803F0F00305E0864BD3F89430FF
:2023A0001B0903F0F003934223D27B681B6A184600F042FD0346002B01D00123C9E37D4B77
:2023C0001B687C4A43F0080313607A4B1B6823F0F0027B681B6A774913430B60754B5B684A
:2023E00023F47F427B68DB691B02724913434B6025E0704B1B686F4A43F0080313606D4BA0
:202400001B6823F0F0027B681B6A6A4913430B60684B5B6823F47F427B68DB691B02654918
:2024200013434B60BB69002B09D17B681B6A184600F002FD0346002B01D0012389E300F0F8
:202440006FFC02465B4B9B681B0903F00F035A49CB5C03F01F0322FA03F3584A1360584B4E
:202460001B681846FEF772FA0346FB73FB7B002B52D0FB7B6DE37B689B69002B32D04D4B2E
:202480001B684C4A43F001031360FEF7AFFA386108E0FEF7ABFA02463B69D31A022B01D9E0
:2024A000032356E3434B1B6803F00203002BF0D0404B1B683F4A43F0080313603D4B1B6876
:2024C00023F0F0027B681B6A3A4913430B60394B5B6823F47F427B68DB691B023549134314
:2024E0004B601AE0334B1B68324A23F001031360FEF77CFA386108E0FEF778FA02463B69F1
:20250000D31A022B01D9032323E32A4B1B6803F00203002BF0D100E000BF7B681B6803F0C7
:202520000103002B73D0BB69082B05D0BB690C2B0ED17B69032B0BD11E4B1B6803F40033BF
:20254000002B63D07B685B68002B5FD1012300E37B685B68B3F5803F06D1164B1B68154AEE
:2025600043F4803313601DE07B685B68B3F5A02F0CD1104B1B680F4A43F4802313600D4B2B
:202580001B680C4A43F4803313600BE0094B1B68084A23F480331360064B1B68054A23F47A
:2025A000802313607B685B68002B1BD0FEF71EFA386110E0001002407C3500080000002088
:2025C00004000020FEF712FA02463B69D31A642B01D90323BDE2AF4B1B6803F40033002BFD
:2025E000F0D014E0FEF702FA386108E0FEF7FEF902463B69D31A642B01D90323A9E2A54BE6
:202600001B6803F40033002BF0D100E000BF7B681B6803F00203002B60D0BB69042B05D0A1
:20262000BB690C2B19D17B69022B16D1994B1B6803F48063002B05D07B68DB68002B01D1F9
:20264000012386E2934B5B6823F0FE427B681B691B06904913434B6040E07B68DB68002B27
:2026600023D08C4B1B688B4A43F480731360FEF7BDF9386108E0FEF7B9F902463B69D31AEF
:20268000022B01D9032364E2824B1B6803F48063002BF0D07F4B5B6823F0FE427B681B696B
:2026A0001B067C4913434B6018E07A4B1B68794A23F480731360FEF799F9386108E0FEF7B6
:2026C00095F902463B69D31A022B01D9032340E2704B1B6803F48063002BF0D17B681B68DA
:2026E00003F00803002B3CD07B685B69002B1CD0684BD3F89430674A43F00103C2F894303F
:20270000FEF774F9386108E0FEF770F902463B69D31A022B01D903231BE25E4BD3F894303D
:2027200003F00203002BEFD01BE05A4BD3F89430584A23F00103C2F89430FEF757F9386173
:2027400008E0FEF753F902463B69D31A022B01D90323FEE14F4BD3F8943003F00203002B1F
:20276000EFD17B681B6803F00403002B00F0A6800023FB77474B9B6D03F08053002B0DD1FA
:20278000444B9B6D434A43F080539365414B9B6D03F08053BB60BB680123FB773E4B1B68DD
:2027A00003F48073002B18D13B4B1B683A4A43F480731360FEF71AF9386108E0FEF716F964
:2027C00002463B69D31A022B01D90323C1E1324B1B6803F48073002BF0D07B689B68012B6A
:2027E00008D12C4BD3F890302A4A43F00103C2F8903024E07B689B68052B10D1254BD3F8A3
:202800009030244A43F00403C2F89030214BD3F89030204A43F00103C2F890300FE01D4B6D
:20282000D3F890301B4A23F00103C2F89030194BD3F89030174A23F00403C2F890307B6850
:202840009B68002B16D0FEF7D1F838610AE0FEF7CDF802463B69D31A41F28832934201D9F4
:20286000032376E10B4BD3F8903003F00203002BEDD01AE0FEF7BAF838610FE0FEF7B6F84E
:2028800002463B69D31A41F28832934206D903235FE100BF0010024000700040AA4BD3F8D7
:2028A000903003F00203002BE8D1FB7F012B05D1A54B9B6DA44A23F0805393657B681B68D6
:2028C00003F02003002B3CD07B685B6A002B1CD09D4BD3F898309C4A43F00103C2F89830D2
:2028E000FEF784F8386108E0FEF780F802463B69D31A022B01D903232BE1934BD3F89830F6
:2029000003F00203002BEFD01BE08F4BD3F898308D4A23F00103C2F89830FEF767F8386110
:2029200008E0FEF763F802463B69D31A022B01D903230EE1844BD3F8983003F00203002BE5
:20294000EFD17B689B6A002B00F002817B689B6A022B40F0C5807C4BDB687B617B6903F0EA
:2029600003027B68DB6A9A422CD17B6903F070027B681B6B013B1B019A4223D17B6903F49C
:20298000FE427B685B6B1B029A421BD17B6903F078427B689B6BDB069A4213D17B6903F473
:2029A000C0027B68DB6B5B08013B5B059A4209D17B6903F0C0627B681B6C5B08013B5B0614
:2029C0009A4267D0BB690C2B62D05F4B1B6803F08063002B01D00123BBE05B4B1B685A4ACC
:2029E00023F080731360FEF701F8386108E0FDF7FDFF02463B69D31A022B01D90323A8E071
:202A0000514B1B6803F00073002BF0D14E4BDA684E4B13407A68D16A7A68126B013A1201B4
:202A200011437A68526B120211437A68D26B5208013A520511437A68126C5208013A52068F
:202A400011437A68926BD2060A433F491343CB603D4B1B683C4A43F0807313603A4BDB6823
:202A6000394A43F08073D360FDF7C0FF386108E0FDF7BCFF02463B69D31A022B01D9032391
:202A800067E0314B1B6803F00073002BF0D05FE001235EE02C4B1B6803F00073002B57D14B
:202AA000294B1B68284A43F080731360264BDB68254A43F08073D360FDF798FF386108E08C
:202AC000FDF794FF02463B69D31A022B01D903233FE01D4B1B6803F00073002BF0D037E0F7
:202AE000BB690C2B2DD0184B1B68174A23F080731360154B1B6803F00063002B05D1124B27
:202B0000DB68114A23F00303D3600F4BDB680E4A23F0887323F48033D360FDF767FF3861D8
:202B200008E0FDF763FF02463B69D31A022B01D903230EE0044B1B6803F00073002BF0D13F
:202B400006E0012305E000BF001002408C809D01002318462037BD4680BD00BF80B584B08B
:202B600000AF786039607B68002B01D10123C8E0664B1B6803F007033A689A4210D9634B43
:202B80001B6823F0070261493B6813430B605F4B1B6803F007033A689A4201D00123B0E05B
:202BA0007B681B6803F00103002B4CD07B685B68032B07D1564B1B6803F00073002B21D11E
:202BC00001239EE07B685B68022B07D1504B1B6803F40033002B15D1012392E07B685B6813
:202BE000002B07D14A4B1B6803F00203002B09D1012386E0464B1B6803F48063002B01D148
:202C000001237EE0424B9B6823F003027B685B683F4913438B60FDF7E9FEF8600AE0FDF70A
:202C2000E5FE0246FB68D31A41F28832934201D9032366E0364B9B6803F00C027B685B68E6
:202C40009B009A42EBD17B681B6803F00203002B08D02F4B9B6823F0F0027B689B682C4903
:202C600013438B60294B1B6803F007033A689A4210D2264B1B6823F0070224493B68134349
:202C80000B60224B1B6803F007033A689A4201D0012336E07B681B6803F00403002B08D0F0
:202CA0001B4B9B6823F4E0627B68DB68184913438B607B681B6803F00803002B09D0144BC3
:202CC0009B6823F460527B681B69DB00104913438B6000F025F802460D4B9B681B0903F085
:202CE0000F030C49CB5C03F01F0322FA03F30A4A13600A4B1B681846FDF728FE0346FB7252
:202D0000FB7A18461037BD4680BD00BF00200240001002407C3500080000002004000020E9
:202D200080B489B000AF0023FB610023BB613E4B9B6803F00C033B613B4BDB6803F00303CD
:202D4000FB603B69002B05D03B690C2B21D1FB68012B1ED1344B1B6803F00803002B07D126
:202D6000314BD3F894301B0A03F00F03FB6105E02D4B1B681B0903F00F03FB612B4AFB6984
:202D800052F82330FB613B69002B0DD1FB69BB610AE03B69042B02D1254BBB6104E03B6969
:202DA000082B01D1234BBB613B690C2B34D11E4BDB6803F00303BB60BB68022B03D0BB689E
:202DC000032B03D005E01A4B7B6105E0194B7B6102E0FB697B6100BF134BDB681B0903F00E
:202DE000070301337B60104BDB681B0A03F07F037A6902FB03F27B68B2FBF3F37B610A4B06
:202E0000DB685B0E03F0030301335B003B607A693B68B2FBF3F3BB61BB6918462437BD46CE
:202E20005DF8047B704700BF001002408C3500080024F40000127A0080B586B000AF786097
:202E400000233B612A4B9B6D03F08053002B03D0FFF768F9786114E0254B9B6D244A43F035
:202E600080539365224B9B6D03F08053FB60FB68FFF758F978611E4B9B6D1D4A23F08053B0
:202E800093657B69B3F5007F0BD17B68802B19D97B68A02B02D902233B6113E001233B61D6
:202EA00010E07B68802B02D903233B610AE07B68802B02D102233B6104E07B68702B01D1B7
:202EC00001233B610B4B1B6823F0070209493B6913430B60074B1B6803F007033A699A4235
:202EE00001D0012300E0002318461837BD4680BD001002400020024080B586B000AF786047
:202F00000023FB740023BB747B681B6803F40063002B31D07B685B6CB3F5400F1AD0B3F5AE
:202F2000400F14D8002B09D0B3F5000F0FD15D4BDB685C4A43F48033D3600CE07B68043307
:202F40000021184600F0F0F90346FB7403E00123FB7400E000BFFB7C002B0BD1514BD3F867
:202F6000883023F440027B685B6C4E491343C1F8883001E0FB7CBB747B681B6803F4003321
:202F8000002B00F09E8000237B74464B9B6D03F08053002B01D1012300E00023002B0DD05B
:202FA000404B9B6D3F4A43F0805393653D4B9B6D03F08053BB60BB6801237B743A4B1B6848
:202FC000394A43F480731360FDF710FDF86009E0FDF70CFD0246FB68D31A022B02D90323CC
:202FE000FB7405E0304B1B6803F48073002BEFD0FB7C002B5AD12B4BD3F8903003F4407333
:203000007B617B69002B1ED07B689B6D7A699A4219D0244BD3F8903023F440737B61214B38
:20302000D3F890301F4A43F48033C2F890301D4BD3F890301B4A23F48033C2F89030194A39
:203040007B69C2F890307B6903F00103002B16D0FDF7CCFCF8600BE0FDF7C8FC0246FB68C4
:20306000D31A41F28832934202D90323FB7406E00C4BD3F8903003F00203002BECD0FB7C13
:20308000002B0BD1074BD3F8903023F440727B689B6D04491343C1F8903009E0FB7CBB74ED
:2030A00006E000BF0010024000700040FB7CBB747B7C012B05D19B4B9B6D9A4A23F0805312
:2030C00093657B681B6803F00103002B0AD0954BD3F8883023F003027B681B6A9149134383
:2030E000C1F888307B681B6803F00203002B0AD08C4BD3F8883023F00C027B685B6A894907
:203100001343C1F888307B681B6803F00403002B0AD0844BD3F8883023F030027B689B6A04
:2031200080491343C1F888307B681B6803F02003002B0AD07B4BD3F8883023F440627B6899
:20314000DB6A78491343C1F888307B681B6803F40073002B0AD0734BD3F8883023F4402213
:203160007B68DB6B6F491343C1F888307B681B6803F48063002B0AD06A4BD3F8883023F413
:2031800040127B681B6C67491343C1F888307B681B6803F04003002B0AD0624BD3F888302B
:2031A00023F440527B681B6B5E491343C1F888307B681B6803F08003002B0AD0594BD3F83F
:2031C000883023F440427B685B6B56491343C1F888307B681B6803F48073002B0AD0514B9E
:2031E000D3F8883023F440327B689B6B4D491343C1F888307B681B6803F40023002B28D0DA
:20320000484BD3F8883023F040627B689B6C45491343C1F888307B689B6CB3F1006F06D1D0
:20322000404BDB683F4A43F48013D36011E07B689B6CB3F1806F0CD17B6804330121184655
:2032400000F072F80346FB74FB7C002B01D0FB7CBB747B681B6803F48023002B28D0314BA4
:20326000D3F8883023F040627B68DB6C2D491343C1F888307B68DB6CB3F1006F06D1294B27
:20328000DB68284A43F48013D36011E07B68DB6CB3F1806F0CD17B6804330121184600F067
:2032A00043F80346FB74FB7C002B01D0FB7CBB747B681B6803F48043002B1CD0194BD3F89C
:2032C000883023F040527B681B6D16491343C1F888307B681B6DB3F1805F0CD17B6804331B
:2032E0000221184600F020F80346FB74FB7C002B01D0FB7CBB747B681B6803F40043002BA9
:203300000AD0084BD3F8883023F080427B685B6D04491343C1F88830BB7C18461837BD4682
:2033200080BD00BF0010024080B584B000AF786039600023FB73744BDB6803F00303002BFF
:2033400018D0714BDB6803F003027B681B689A420DD17B681B68002B09D06B4BDB681B09E7
:2033600003F007035A1C7B685B689A4247D00123FB7344E07B681B68032B18D0032B25D8E4
:20338000012B02D0022B09D020E05F4B1B6803F00203002B1DD10123FB731AE05A4B1B6837
:2033A00003F48063002B16D10123FB7313E0564B1B6803F40033002B0FD1534B1B6803F42B
:2033C0008023002B09D10123FB7306E00123FB7304E000BF02E000BF00E000BFFB7B002BB7
:2033E0000DD1494BDB6823F073027B6819687B685B68013B1B010B4343491343CB60FB7B5D
:20340000002B7CD1404B1B683F4A23F080631360FDF7ECFAB86009E0FDF7E8FA0246BB6818
:20342000D31A022B02D90323FB7305E0364B1B6803F00063002BEFD1FB7B002B5FD13B6865
:20344000002B10D1304B1B6923F0784323F4FE437A68926811027A68D268D2060A432A4998
:2034600013430B6127E03B68012B12D1264B1B6923F4C00323F4FE437A68926811027A68D9
:2034800012695208013A52050A431F4913430B6111E01D4B1B6923F0C06323F4FE437A6801
:2034A000926811027A6852695208013A52060A43154913430B61144B1B68134A43F08063B3
:2034C0001360FDF793FAB86009E0FDF78FFA0246BB68D31A022B02D90323FB7305E00A4B4C
:2034E0001B6803F00063002BEFD0FB7B002B06D1054B1A697B689B69034913430B61FB7B53
:2035000018461037BD4680BD0010024070B50D4D0D4C641BA4100026A64209D10B4D0C4CD1
:2035200000F020F8641BA4100026A64205D170BD55F8043B98470136EEE755F8043B98475D
:203540000136F2E7BC350008BC350008BC350008C035000802440346934200D1704703F88C
:20356000011BF9E7F8B500BFF8BC08BC9E467047F8B500BFF8BC08BC9E4670470000000051
:20358000000000000102030406070809A0860100400D0300801A060000350C0040420F001A
:2035A00080841E0000093D0000127A000024F40000366E010048E801006CDC02B101000825
:2035C0008D01000800093D001000000001000000FFFFFFFFFFFFFFFFFFFFFFFFFFFFFFFF0E
:2035E000FFFFFFFFFFFFFFFFFFFFFFFFFFFFFFFFFFFFFFFFFFFFFFFFFFFFFFFFFFFFFFFFEB
:20360000FFFFFFFFFFFFFFFFFFFFFFFFFFFFFFFFFFFFFFFFFFFFFFFFFFFFFFFFFFFFFFFFCA
:20362000FFFFFFFFFFFFFFFFFFFFFFFFFFFFFFFFFFFFFFFFFFFFFFFFFFFFFFFFFFFFFFFFAA
:20364000FFFFFFFFFFFFFFFFFFFFFFFFFFFFFFFFFFFFFFFFFFFFFFFFFFFFFFFFFFFFFFFF8A
:203F000000010000FFFFFFFFFFFFFFFFFFFFFFFFFFFFFFFFFFFFFFFFFFFFFFFFFFFFFFFFBC
:203F2000FFFFFFFFFFFFFFFFFFFFFFFFFFFFFFFFFFFFFFFFFFFFFFFFFFFFFFFFFFFFFFFFA1
:203F4000FFFFFFFFFFFFFFFFFFFFFFFFFFFFFFFFFFFFFFFFFFFFFFFFFFFFFFFFFFFFFFFF81
:203F6000FFFFFFFFFFFFFFFFFFFFFFFFFFFFFFFFFFFFFFFFFFFFFFFFFFFFFFFFFFFFFFFF61
:203F8000FFFFFFFFFFFFFFFFFFFFFFFFFFFFFFFFFFFFFFFFFFFFFFFFFFFFFFFFFFFFFFFF41
:203FA000FFFFFFFFFFFFFFFFFFFFFFFFFFFFFFFFFFFFFFFFFFFFFFFFFFFFFFFFFFFFFFFF21
:203FC000FFFFFFFFFFFFFFFFFFFFFFFFFFFFFFFFFFFFFFFFFFFFFFFFFFFFFFFFFFFFFFFF01
:1F3FE000FFFFFFFFFFFFFFFFFFFFFFFFFFFFFFFFFFFFFFFFFFFFFFFFFFFFFFFFFFFFFFE1
:2040000000000120A56200080161000803610008056100080761000809610008000000004A
:204020000000000000000000000000000B6100080D610008000000000F61000811610008A4
:20404000F5620008F5620008F5620008F5620008F5620008F5620008F5620008F562000868
:20406000F5620008F5620008F562000819610008F5620008F56200082961000839610008AF
:204080004961000859610008F5620008F5620008F5620008F5620008F562000869610008FF
:2040A000F562000875610008F562000885610008F56200080000000000000000F5620008B8
:2040C000F5620008F5620008F5620008F5620008F562000895610008AD610008F562000892
:2040E000C5610008F562000800000000000000000000000000000000000000000000000033
:2041000000000000F562000800000000F56200080000000000000000E1610008F16100083D
:20412000F5620008F5620008F5620008F5620008F5620008000000000000000000000000A4
:20414000F5620008F5620008F562000800000000F5620008F5620008F5620008F5620008C6
:2041600001620008F5620008F562000800000000F5620008F5620008000000000000000058
:20418000F5620008F5620008F5620008000000000000000000000000000000000000000002
:2041A0000000000000000000000000000000000000000000000000000000000000000000FF
:2041C0000000000000000000000000000000000000000000000000000000000000000000DF
:2041E0000000000000000000000000000000000000000000000000000000000000000000BF
:204200003504000000081600FFFFFFFFFFFFFFFF10B5054C237833B9044B13B10448AFF3B1
:2042200000800123237010BD0003002000000000100A010808B5034B1BB103490348AFF324
:20424000008008BD0000000004030020100A010810F8012B11F8013B012A28BF9A42F7D0A1
:20426000D01A7047034613F8012B002AFBD1181A0138704700000000000000000000000005
:2042800001F0FF01102A2BDB10F0070F08D010F8013B013A8B422DD010F0070F42B3F6D1E4
:2042A000F0B441EA012141EA014122F007047FF000070023F0E80256083C85EA010586EA91
:2042C000010685FA47F5A3FA87F586FA47F6A5FA87F68EB9EED1F0BC01F0FF0102F007028C
:2042E00032B110F8013B013A83EA010313B1F8D10020704701387047002D06BF35460338EF
:20430000073815F0010F07D1013015F4807F02BF013015F4C03F0130F0BC0138704700BFB2
:2043200081F0004102E000BF83F0004330B54FEA41044FEA430594EA050F08BF90EA020FAC
:204340001FBF54EA000C55EA020C7FEA645C7FEA655C00F0E2804FEA5454D4EB5555B8BF82
:204360006D420CDD2C4480EA020281EA030382EA000083EA010180EA020281EA0303362D39
:2043800088BF30BD11F0004F4FEA01314FF4801C4CEA113102D0404261EB410113F0004FA3
:2043A0004FEA03334CEA133302D0524263EB430394EA050F00F0A780A4F10104D5F1200EE1
:2043C0000DDB02FA0EFC22FA05F2801841F1000103FA0EF2801843FA05F359410EE0A5F129
:2043E00020050EF1200E012A03FA0EFC28BF4CF0020C43FA05F3C01851EBE37101F0004535
:2044000007D54FF0000EDCF1000C7EEB00006EEB0101B1F5801F1BD3B1F5001F0CD34908AE
:204420005FEA30004FEA3C0C04F101044FEA445212F5800F80F09A80BCF1004F08BF5FEA8D
:20444000500C50F1000041EB045141EA050130BD5FEA4C0C404141EB0101013C28BFB1F506
:20446000801FE9D291F0000F04BF01460020B1FA81F308BF2033A3F10B03B3F120020CDAA1
:204480000C3208DD02F1140CC2F10C0201FA0CF021FA02F10CE002F11402D8BFC2F1200CB5
:2044A00001FA02F120FA0CFCDCBF41EA0C019040E41AA2BF01EB0451294330BD6FEA0404EF
:2044C0001F3C1CDA0C340EDC04F11404C4F1200220FA04F001FA02F340EA030021FA04F340
:2044E00045EA030130BDC4F10C04C4F1200220FA02F001FA04F340EA0300294630BD21FA5E
:2045000004F0294630BD94F0000F83F4801306BF81F480110134013D4EE77FEA645C18BF3B
:204520007FEA655C29D094EA050F08BF90EA020F05D054EA000C04BF1946104630BD91EA75
:20454000030F1EBF0021002030BD5FEA545C05D14000494128BF41F0004130BD14F58004D2
:204560003CBF01F5801130BD01F0004545F0FE4141F470014FF0000030BD7FEA645C1ABF4E
:20458000194610467FEA655C1CBF0B46024650EA013406BF52EA033591EA030F41F400213D
:2045A00030BD00BF90F0000F04BF0021704730B54FF4806404F132044FF000054FF000016A
:2045C00050E700BF90F0000F04BF0021704730B54FF4806404F1320410F0004548BF4042B6
:2045E0004FF000013EE700BF42004FEAE2014FEA31014FEA02701FBF12F07F4393F07F4F30
:2046000081F06051704732F07F4208BF704793F07F4F04BF41F40021704730B54FF4607443
:2046200001F0004521F000411CE700BF50EA010208BF704730B54FF000050AE050EA010225
:2046400008BF704730B511F0004502D5404261EB41014FF4806404F132045FEA915C3FF40F
:20466000D8AE4FF003025FEADC0C18BF03325FEADC0C18BF033202EBDC02C2F1200300FA5B
:2046800003FC20FA02F001FA03FE40EA0E0021FA02F11444BDE600BF70B54FF0FF0C4CF464
:2046A000E06C1CEA11541DBF1CEA135594EA0C0F95EA0C0F00F0DEF82C4481EA030621EA11
:2046C0004C5123EA4C5350EA013518BF52EA033541F4801143F4801338D0A0FB02CE4FF094
:2046E0000005E1FB02E506F00042E0FB03E54FF00006E1FB03569CF0000F18BF4EF0010EBE
:20470000A4F1FF04B6F5007F64F5407404D25FEA4E0E6D4146EB060642EAC62141EA555180
:204720004FEAC52040EA5E504FEACE2EB4F1FD0C88BFBCF5E06F1ED8BEF1004F08BF5FEA55
:20474000500E50F1000041EB045170BD06F0004646EA010140EA020081EA0301B4EB5C0404
:20476000C2BFD4EB0C0541EA045170BD41F480114FF0000E013C00F3AB8014F1360FDEBFE6
:20478000002001F0004170BDC4F10004203C35DA0C341BDC04F11404C4F1200500FA05F366
:2047A00020FA04F001FA05F240EA020001F0004221F0004110EBD37021FA04F642EB0601C1
:2047C0005EEA430E08BF20EAD37070BDC4F10C04C4F1200500FA04F320FA05F001FA04F26F
:2047E00040EA020001F0004110EBD37041F100015EEA430E08BF20EAD37070BDC4F1200536
:2048000000FA05F24EEA020E20FA04F301FA05F243EA020321FA04F001F0004121FA04F2D8
:2048200020EA020000EBD3705EEA430E08BF20EAD37070BD94F0000F0FD101F0004640007A
:2048400041EB010111F4801F08BF013CF7D041EA060195F0000F18BF704703F000465200DC
:2048600043EB030313F4801F08BF013DF7D043EA0603704794EA0C0F0CEA135518BF95EA58
:204880000C0F0CD050EA410618BF52EA4306D1D181EA030101F000414FF0000070BD50EA5B
:2048A000410606BF1046194652EA430619D094EA0C0F02D150EA013613D195EA0C0F05D198
:2048C00052EA03361CBF104619460AD181EA030101F0004141F0FE4141F470014FF0000002
:2048E00070BD41F0FE4141F4780170BD70B54FF0FF0C4CF4E06C1CEA11541DBF1CEA135590
:2049000094EA0C0F95EA0C0F00F0A7F8A4EB050481EA030E52EA03354FEA013100F08880EA
:204920004FEA03334FF0805545EA131343EA12634FEA022245EA111545EA10654FEA002648
:204940000EF000419D4208BF964244F1FD0404F5407402D25B084FEA3202B61A65EB0305EB
:204960005B084FEA32024FF480104FF4002CB6EB020E75EB030E22BFB61A754640EA0C0061
:204980005B084FEA3202B6EB020E75EB030E22BFB61A754640EA5C005B084FEA3202B6EBC2
:2049A000020E75EB030E22BFB61A754640EA9C005B084FEA3202B6EB020E75EB030E22BF71
:2049C000B61A754640EADC0055EA060E18D04FEA051545EA16754FEA06164FEAC30343EA7D
:2049E00052734FEAC2025FEA1C1CC0D111F4801F0BD141EA00014FF000004FF0004CB6E7D0
:204A000011F4801F04BF01430020B4F1FD0C88BFBCF5E06F3FF6AFAEB5EB030C04BFB6EB31
:204A2000020C5FEA500C50F1000041EB045170BD0EF0004E4EEA113114EB5C04C2BFD4EB6F
:204A40000C0541EA045170BD41F480114FF0000E013C90E645EA060E8DE60CEA135594EA40
:204A60000C0F08BF95EA0C0F3FF43BAF94EA0C0F0AD150EA01347FF434AF95EA0C0F7FF457
:204A800025AF104619462CE795EA0C0F06D152EA03353FF4FDAE1046194622E750EA410678
:204AA00018BF52EA43067FF4C5AE50EA41047FF40DAF52EA43057FF4EBAE12E74FEA410201
:204AC00012F5001215D211D56FF47873B3EB625212D94FEAC12343F0004343EA505311F001
:204AE000004F23FA02F018BF404270474FF00000704750EA013005D111F0004008BF6FF0AA
:204B0000004070474FF00000704700BF4A0011D212F5001211D20DD56FF47873B3EB62523E
:204B20000ED44FEAC12343F0004343EA505323FA02F070474FF00000704750EA013002D136
:204B40004FF0FF3070474FF0000070474FEA4102B2F1E04324BFB3F5001CDCF1FE5C0DD944
:204B600001F0004C4FEAC0024CEA5070B2F1004F40EB830008BF20F00100704711F0804F08
:204B800021D113F13872BCBF01F00040704741F480114FEA5252C2F11802C2F1200C10FAB9
:204BA0000CF320FA02F018BF40F001004FEAC1234FEAD32303FA0CFC40EA0C0023FA02F349
:204BC0004FEA4303CCE77FEA625307D150EA01331EBF4FF0FE4040F44000704701F0004089
:204BE00040F0FE4040F40000704700BF53B94AB9002908BF00281CBF4FF0FF314FF0FF30BE
:204C000000F06EB9ADF1080C6DE904CE00F006F8DDF804E0DDE9022304B070472DE9F04759
:204C2000089D04468C46002B40F083808A42174647D9B2FA82F242B1C2F1200024FA00F018
:204C40009140974040EA010C94404FEA1748230CBCFBF8F61FFA87FE08FB16C143EA01434C
:204C600006FB0EF1994209D9FB1806F1FF3080F01981994240F21681023E3B445B1AA4B206
:204C8000B3FBF8F008FB103344EA034400FB0EFEA64509D93C1900F1FF3380F00581A64596
:204CA00040F2028102383C4440EA0640A4EB0E0400261DB1D4400023C5E900433146BDE83C
:204CC000F08702B9FFDEB2FA82F2002A50D1CB1B4FEA174E1FFA87F80126B3FBFEFC210C42
:204CE0000EFB1C3341EA034108FB0CF38B4207D979180CF1FF3002D28B4200F2E9808446BB
:204D0000C91AA3B2B1FBFEF00EFB101143EA014408FB00F8A04507D93C1900F1FF3302D219
:204D2000A04500F2D9801846A4EB080440EA0C40BFE78B4209D9002D00F0B1800026C5E95D
:204D4000000130463146BDE8F087B3FA83F6002E4AD18B4202D3824200F2B880841A61EB60
:204D6000030101208C46002DA8D0C5E9004CA5E7C2F1200320FA03F6974001FA02F04FEA2B
:204D8000174ED9403043030CB1FBFEF61FFA87F80EFB161143EA014306FB08F1994204FA67
:204DA00002F409D9FB1806F1FF3C80F08D80994240F28A80023E3B445B1A81B2B3FBFEF03F
:204DC0000EFB103341EA034100FB08F38B4207D9791800F1FF3C73D28B4271D902383944A5
:204DE000CB1A40EA064678E7C6F1200C03FA06F422FA0CF31C4320FA0CF701FA06F34FEA5B
:204E0000144E21FA0CF11F433B0CB1FBFEF91FFA84F80EFB191143EA014109FB08FA8A45C0
:204E200002FA06F200FA06F308D9611809F1FF3048D28A4546D9A9F102092144A1EB0A015F
:204E4000BFB2B1FBFEF00EFB101147EA014700FB08F8B84507D9E71900F1FF312ED2B845AE
:204E60002CD90238274440EA0940A7EB0807A0FB02894F45C64649461AD317D05DB1B3EB9F
:204E80000E0267EB010707FA0CFCF2404CEA0202F740C5E9002700263146BDE8F0872E46FA
:204EA00028460BE70646E9E61846FDE64345E5D2B8EB020E69EB04010138DFE70846D2E7E5
:204EC00060468DE78146B9E7664675E730464AE7ACF1020C394413E702383C4424E700BFFC
:204EE000704700BF08B520214FF0904002F0C2FA012801D0002008BD0120FCE7F0B589B0C0
:204F0000002403940494059406940794444BDA6C42F00402DA64DA6C02F004020092009ABB
:204F2000DA6C42F00102DA64DA6C02F001020192019ADA6C42F00202DA64DB6C03F0020356
:204F40000293029B374F22464FF40051384602F098FA22464FF4C2514FF0904002F091FA51
:204F6000314D22464AF26601284602F08AFA4FF400530393012604960594069403A938467A
:204F800002F028F9202303930494059403A94FF0904002F01FF94FF4C2530393049605940E
:204FA000069403A94FF0904002F014F94AF26603039304960594069403A9284602F00AF986
:204FC0004FF4A8530393194B0493059403A9284602F000F94FF4286303930494059403A923
:204FE000284602F0F7F84FF480430393104B0493059403A9284602F0EDF822462146172044
:2050000001F088FE172001F0B9FE22462146282001F080FE282001F0B1FE09B0F0BD00BFA7
:20502000001002400008004800040048000011100000311000B583B01A4B9A6C42F0010298
:205040009A649B6C03F001030193019B002211460B2001F05FFE0B2001F090FE002211460F
:205060000E2001F057FE0E2001F088FE002211460F2001F04FFE0F2001F080FE002211461A
:20508000102001F047FE102001F078FE00221146112001F03FFE112001F070FE03B05DF8A3
:2050A00004FB00BF0010024008B50848084B0360002343607F228260FF22C2600361436189
:2050C0008361C36103F0C4FD08BD00BFB40700200028004038B50D4C0D4B23600D4B636011
:2050E0000025A5600123E36025616561A561E5612562204602F04EFB2946204602F05CFD3F
:205100002946204602F086FD38BD00BF58070020005C0040EC9C901008B50948094B036089
:205120004FF41653436000238360C36003610C2242618361C3610362436205F00DF808BDF1
:20514000080900200038014008B50948094B03604FF4E133436000238360C36003610C222B
:2051600042618361C3610362436204F0F5FF08BD880900200044004070B586B00025009583
:20518000019502950395049505952A4C2A4B23606560A560E5600123236108236361257668
:2051A00065760626E66184F82050A562E56284F83050656384F83850204601F0DBF81F4B0B
:2051C00000930196072302937F2303930423049305956946204601F011FA194B00930C231F
:2051E00001936946204601F009FA164B0093122301936946204601F001FA134B0093182328
:2052000001936946204601F0F9F9104B00934FF4807301936946204601F0F0F90C4B009371
:205220004FF4837301936946204601F0E7F906B070BD00BF8C050020000004502000F014F0
:20524000400020190002B0250080F03E000052C70100008030B589B00024049405940694A9
:2052600007940194029403940F4D4FF080432B6050236B60AC604FF0FF33EB602C618023B2
:20528000AB61284603F0A0FF4FF48053049304A9284604F0D5F80194039401A9284604F041
:2052A00009FA09B030BD00BF2408002030B585B000250195029503950A4C0B4B2360502394
:2052C0006360A560FA23E3608023A361204603F07BFF0195039501A9204604F0EBF905B061
:2052E00030BD00BF700800200010004030B585B000250195029503950A4C0B4B2360502374
:205300006360A5604FF47A73E3608023A361204603F05AFF0195039501A9204604F0CAF904
:2053200005B030BDBC0800200014004030B59BB00024169417941894199413941494159499
:205340000C940D940E940F941094119412942C22214601A80AF02CFF224D234B2B6050237A
:205360006B60AC604FF47A73EB602C616C618023AB61284603F028FF4FF48053169316A9CC
:20538000284604F05DF8284603F04EFF13941494159413A9284604F08DF960230C930D9449
:2053A0000E940F9410941194129422460CA9284603F0A6FF019402940394049405944FF460
:2053C00000530693079408944FF0007309930A940B9401A9284604F0A5F9284600F050FDCA
:2053E0001BB030BDD8070020002C014008B50648064B03600023436040F6FF73C360836056
:2054000002F034FC08BD00BFA40700200030004008B58021034802F02DF8012800D00020D2
:2054200008BD00BF000400482DE9F041AEB0242200211EA80AF0BCFE0024189419941A94EB
:205440001B941C945C22214601A80AF0B1FE4FF01808CDF8748001252295239560232593CE
:20546000022627962895299528232A9307272B972C962D961DA802F02DFD0F23189303236B
:2054800019931A941B941C94042118A803F062F80E4B019309940A940F944FF0805315939C
:2054A0004FF40074179402950395CDF810800597069607964FF08073089301A803F0D8F9F7
:2054C000204602F01DFC2EB0BDE8F081034102002DE9F04782B0C54BD3F8942002F07F4260
:2054E000C3490A60D3F8942042F40002C3F894209A6D42F080529A659B6D03F080530193A4
:20550000019B02F0E5FBBB4BD3F8CC200021C3F8CC10AA2A00F0E28102F0E2FB0AF08AFA34
:205520000AF048FA00F010FFFFF77EFFFFF7E6FCFFF780FDFFF7B8FDFFF7CCFDFFF7ECFD29
:20554000FFF702FEFFF718FEFFF7F0FEFFF782FEFFF7ACFEFFF7CAFEFFF748FF01224FF4EE
:205560000051A54801F08DFFFFF752FFA34A1070002009F015F8F0B1A04B1B78002B40F01C
:20558000B9819F4B9F4A116855689468D06859609D60DC60186111695961994B9A4A1068B5
:2055A00051689861D96112891A84984A12681A6000225A715A760422944991480AF0DCFD84
:2055C00090B38E4B1B78002B40F0A1818C4B8D4A116855689468D06859609D60DC6018611C
:2055E000116959618648884B19685A688161C2611B890384854B1B6803600023437143761D
:205600002A2109F089F88248824B19685A689D68DC68016042608560C46019695A690161EF
:205620004261182109F0DAF9012008F0B9FF022008F0B6FF032008F0B3FF80B1744B754AA6
:20564000156851689468D0681D6059609C60D8605169596100221A745A749A74DA74684B75
:205660001B79022B00F060816B4B5A686B4B1A60042008F095FF50B1694B6A4A5168926824
:2056800059609A6000221A705A709A70DA70644B9A88654B1A8008F0CFFE0024634B1C704F
:2056A00008F0CAFD624E304605F032FD3471614B1C70614B1C70614B1C70614B1C70DFF885
:2056C000389122464FF40041484601F0DAFE5D4B1C705D4B1E221A6032275C4B1F605C4B02
:2056E0001C805C4B1C7014255B4B1D605B4B1D60DFF8DC813946404605F0BDFC584940464E
:2057000005F0A8FC574B1C70574B584A1A60584B584A1A60584B1F80584B2D221A80584BD4
:205720001C70584B1D80584803685C63214603F007FF564803F008FC554803F005FC5548B0
:2057400003F002FCDFF88C81234622464FF4E13140460AF00AFBDFF880A1234622464FF4BD
:20576000165150460AF001FB40460AF02BFB074640460AF02AFB0146384609F07FFD5146CD
:20578000454805F00BFB45480AF038FC44480AF035FC44480AF032FC282001F0EFFA2820F1
:2057A00001F0ECFA404F7F21384601F054FA06223E49384601F0AAF922464021484601F01D
:2057C00060FE3B4802F07EFA01233371394B1C70394B1C70394B1C70394B1D80394B1D8044
:2057E000394B1C80394B23221A80F5E000100240A096002000280040000400487C960020C3
:20580000F0960020C00C0108B40C0108F40C01087C9500209C0C0108689700208096002004
:205820001C970020E80C0108289600204E96002068050020A6960020A89700205096002068
:205840007D9600207E960020EC960020B0970020889600208A960020649500206895002024
:20586000E54E000876950020889700200000F0419C970020000070418E97002096970020BC
:20588000989600209A960020D807002024080020BC0800207008002050030020D816002022
:2058A000A8160020C01600208C0500204C950020A407002077950020789500204F96002039
:2058C000789600207A9600207E970020E29600201C030020080A002058100020654B1B6871
:2058E00013F0005F3FF418AE624A136823F00053136011E6604B614A116855689468D06896
:2059000059609D60DC6018611169596145E65A4B5A4A116855689468D06859609D60DC6018
:205920001861116959615DE6554B9A68554B1A609EE6554B1B68B3F1553F56D1534802F028
:20594000C1F90AF0B9F830B10AF044F800284CD10AF05EF849E00AF0C7F8F5E74C4B0022BF
:205960001A734C4B1B68FBB94B4B1B78E3B14B4B1B7CCBB9464B1B7DCBB14FF480714848F5
:2059800001F078FD012869D0414B00221A750EE03F4B9B68E31A322BE3D9404B01229A75B4
:2059A0003B4B00221A73DCE7394B00221A753D4B1B688BB92F4B1B6813F0005F0CD0374BAE
:2059C0005B7A4BB90122354B1A722A490B6823F000530B60344B1A70344A1368013313605F
:2059E000334B1B68B3F1AA3FA3D0324805F010FA31480AF0EAF90AF013F9002802DD2E4854
:205A00000AF061FA09F016FC2C480AF01FFB2C480AF01CFB2B480AF019FB2B4805F031FB04
:205A200000F0A2FC04461B4B1B68002B96D11A4B1B78002B92D0194BDB7D002B8ED1144BE9
:205A40001B7B002B8DD04FF48061154801F012FD01289DD00E4B00221A7382E70C4B1869C8
:205A6000201A3228A3D90D4B0122DA73084B00221A759CE7A0960020F0960020D40C0108E2
:205A800068970020809600201C000020A407002068050020EC960020A69600209C950020CE
:205AA00000040048B09700209896002070960020000000205003002058100020D816002096
:205AC000A8160020C01600201C0300207047000038B504460D46012805D01CB94FF6FF73E8
:205AE0009D4231D038BD4FF6FF739942F5D10023234A642123480AF077FA0023224A4FF4BC
:205B00007A7122480AF070FA0023214A4FF47A7120480AF069FA204805F09AFA1F4805F0FE
:205B200039F91F4804F0EAFD1E4805F07BFB1E4B1E4A1F491F480AF027FA1F4B1F4A204929
:205B400020480AF021FAC8E71E480AF005F919480AF002F9134805F0D2FA114804F0D9FD26
:205B60000E4805F01AF90C4805F073FA09480AF015FA06480AF012FA02480AF00FFAB1E77E
:205B800005CB0008D8160020CDD40008A8160020D9D60008C01600201C0300205003002039
:205BA0002803002068050020C80600201007002088090020080A0020380600208006002001
:205BC000080900205810002008B54FF6FF710120FFF77EFF08BD08B54FF6FF710020FFF7B9
:205BE00077FF08BD82B00A4B1A6E42F001021A661A6E02F001020092009A9A6D42F08052F2
:205C00009A659B6D03F080530193019B02B070470010024070B588B0002303930493059387
:205C2000069307930268294B9A4201D008B070BD044603F17043A3F5F833DA6C42F400523F
:205C4000DA64DA6C02F400520092009ADA6C42F00102DA64DA6C02F001020192019ADA6CE4
:205C600042F00202DA64DB6C03F002030293029B132303930B2604960025059503A94FF0FE
:205C8000904001F0A7FA012303930496059503A90F4801F09FFA0F480F4B03604560856089
:205CA000C560802303614FF4807343614FF480638361C561056201F0C1F818B9054BE36435
:205CC0009C62B3E7FFF702FFF8E700BF0000045000040048F0050020080002402DE9F04151
:205CE00088B00023039304930593069307930268234B9A4202D008B0BDE8F081214CE36C41
:205D000043F00103E364E36C03F001030093009BE36C43F00203E364E36C03F002030193E8
:205D2000019B802303934FF01208CDF8108001270597032606960425079503A94FF09040D7
:205D400001F048FA10230393CDF8108005970696079503A90C4801F03DFAA36D43F40003AC
:205D6000A365A36D03F400030293029B00221146482000F0CFFF482001F000F8BBE700BF8E
:205D8000005C004000100240000400480268064B9A4200D07047054AD2F8903043F4004358
:205DA000C2F89030F6E700BF002800400010024000B585B003682E4A93420BD0B3F1804F23
:205DC00023D02C4A93422CD02B4A93423CD005B05DF804FB294B1A6E42F400621A661B6E8D
:205DE00003F400630093009B00221146192000F091FF192000F0C2FF002211461B2000F05B
:205E000089FF1B2000F0BAFFE1E703F504339A6D42F001029A659B6D03F001030193019BB5
:205E2000D5E7164B9A6D42F010029A659B6D03F010030293029B00221146362000F06AFF93
:205E4000362000F09BFFC2E70C4B9A6D42F020029A659B6D03F020030393039B002211463D
:205E6000372000F057FF372000F088FFAFE700BF002C0140001000400014004000100240FF
:205E800000B587B00023019302930393049305930268104B9A4202D007B05DF804FB03F58F
:205EA0006443DA6C42F00102DA64DB6C03F001030093009B4FF4807301930223029300236F
:205EC000039304930123059301A94FF0904001F081F9E1E7002C014070B58AB004460023B4
:205EE0000593069307930893099303685C4A934204D05C4A93425AD00AB070BD5A4B1A6E2D
:205F000042F480421A661A6E02F480420192019ADA6C42F00102DA64DB6C03F0010302930F
:205F2000029B4FF4C06305930226069600250795032308930723099305A94FF0904001F00C
:205F400049F94A484A4B0360466010238360C5608023036145618561C561056200F06EFF17
:205F6000F8B9424BA3669C624248434B03600223436000238360C3608022026143618361E3
:205F8000C361036200F05AFF70B93A4BE3669C6200221146252000F0BDFE252000F0EEFEB0
:205FA000AAE7FFF793FDDCE7FFF790FDEDE72E4B9A6D42F400329A659A6D02F40032039205
:205FC000039ADA6C42F00102DA64DB6C03F001030493049B0C2305930226069600250795AB
:205FE000032308930723099305A94FF0904001F0F1F82248224B0360466010238360C56068
:206000008023036145618561C561056200F016FFF8B91A4BA3669C621A481B4B03600223EE
:20602000436000238360C3608022026143618361C361036200F002FF70B9124BE3669C62C0
:2060400000221146262000F065FE262000F096FE52E7FFF73BFDDCE7FFF738FDEDE700BF7C
:20606000003801400044004000100240800600204400024038060020580002401007002076
:2060800080000240C80600206C00024010B504460368194A934203D0184A934216D010BD33
:2060A00002F55842136E23F4804313664FF4C0614FF0904001F05AF9A06E00F03BFFE06E3E
:2060C00000F038FF252000F067FEE8E702F5E632936D23F4003393650C214FF0904001F0B2
:2060E00045F9A06E00F026FFE06E00F023FF262000F052FED3E700BF0038014000440040E3
:206100007047FEE7FEE7FEE7FEE770477047704708B504F071F808BD08B5024800F0F6FF44
:2061200008BD00BFF005002008B5024800F0EEFF08BD00BF8006002008B5024800F0E6FFDC
:2061400008BD00BF3806002008B5024800F0DEFF08BD00BFC806002008B5024800F0D6FF4B
:2061600008BD00BF1007002008B54FF4807001F097F908BD08B5024802F020FF08BD00BF92
:20618000D807002008B5024802F018FF08BD00BFD807002010B5044C204603F0D7FC2046C6
:2061A00004F00CF810BD00BF0809002010B5044C204603F0CBFC204604F000F810BD00BF17
:2061C0008809002008B54FF4806001F069F94FF4805001F065F94FF4804001F061F908BD66
:2061E00008B5024802F0EAFE08BD00BF7008002008B5024802F0E2FE08BD00BFBC08002061
:2062000008B5024801F0D0FC08BD00BF5807002010B503460C4A0D490D48006840B10C48FB
:2062200000680344521A934206D8094A136010BD0748084C0460F2E709F064FF0C2303602F
:206240004FF0FF30F3E700BF0000012000100000F0160020289800200F49D1F8883043F4F0
:206260007003C1F888300D4B1A6842F001021A60002098601A6822F0A85222F410221A6049
:206280004FF48052DA601A6822F480221A609861034B8B60704700BF00ED00E00010024034
:2062A00000400008DFF834D0FFF7D6FF002103E00B4B5B58435004310A480B4B42189A423D
:2062C000F6D30A4A02E0002342F8043B084B9A42F9D309F01DFFFFF7FBF8FEE70000012024
:2062E000BC21010800020020000300200003002024980020FEE70000104B1B780BB90120BC
:20630000704710B504464FF47A70B0FBF3F30C4A1068B0FBF3F000F063FD68B90F2C01D917
:2063200001200AE0002221464FF0FF3000F0F2FC044B1C60002000E0012010BD040200209E
:20634000000200200802002010B5032000F0D0FC0020FFF7D1FF10B10124204610BD044604
:20636000FFF740FCF9E70000014B1868704700BFC097002030B583B000230193002800F06B
:20638000D8800446436D03B323689A6812F0005F05D09A6822F0204222F03F029A602268E5
:2063A000936813F0805F1DD1936823F0104323F03F0343F0805393605F4B1B689B095F4AE9
:2063C000A2FB03239B09019309E0FFF723FC0023A36584F85030D7E7019B013B0193019BD7
:2063E000002BF9D12268936813F0805F09D1636D43F010036365A36D43F00103A365012019
:2064000000E00020936813F0040300D00123616D11F0100F40F08680002B40F08380636D31
:2064200023F4817343F002036365936813F0010F0BD1434B9B6813F0010F06D16368414997
:206440008A6822F47C1213438B60627E636B43EA4233E2681343A268134394F8202043EA1C
:206460000243012A3ED0A26A22B102F47072E16A0A4313432168CD68334A2A401343CB60D3
:2064800021688B6813F0040300D001238A6812F0080200D00122B3B9AAB9227E94F8303036
:2064A0005B0043EA8232CB6823F4804323F002031343CB6094F83830012B18D022681369EC
:2064C00023F0010313612369012B22D02268136B23F00F031363636D23F0030343F00103C4
:2064E000636524E0626A013A43EA4243BBE721680B6923F4FF6323F00403E26B256C2A439A
:20650000656C2A43A56C2A43134343F001030B61D9E721680B6B23F00F03E269013A134306
:206520000B63D8E7636D43F010036365012003B030BD0120FBE700BF00020020632D3E05D8
:20654000000004500003045007C0F0FF704708B5806AFFF7FBFF08BD704708B50346806A20
:20656000426D12F0500F30D1436D43F40073436503681A6812F0080F14D0DA6812F4406F27
:2065800020D1DB6813F4005F1CD1436D23F480734365436D13F4805F14D1436D43F00103B0
:2065A00043650FE0DB6813F0020F0BD1436D23F480734365436D13F4805F03D1436D43F062
:2065C0000103436503F0F0FF08BD426D12F0100F04D1C26C526B18469047F5E7FFF7BCFF16
:2065E000F2E708B5806A436D43F040034365836D43F004038365FFF7AFFF08BDF0B482B0FC
:206600000022019290F85020012A00F02D820346012280F850200268926812F0040F0AD05C
:20662000426D42F0200242650120002283F8502002B0F0BC70474A68052A09D8023A032A42
:2066400000F28E80DFE802F0028285880C224A601E684D680C6830362A0A920002F00C023D
:20666000B05805F01F051F27AF4020EA0700C4F38464AC402043B0501C68A26812F004022F
:2066800000D00122A06810F0080000D0012052BB48BB0E688D681434720E920002F0040239
:2066A000A058C6F304560727B74020EA0700B5402843A0504C691868C268C2F3C102520020
:2066C00004FA02F20D69042D4DD00E68603050F82570AC4C3C4006F0F8463243144344F079
:2066E000004440F825401868826812F0010F16D10A68CD68D0F8B040C2F3120624EA060412
:2067000005F01806A04DF5402A40C2F312022243C0F8B020C8689D4A904200F08B800A68CE
:206720009B490A4200F09C819A49896801F0E0749948824200F047819848824200F0698128
:206740009748824200F0798100206EE712224A607EE718224A607BE74FF480724A6077E771
:2067600006224A6074E7026E046EC4F384640A68C2F312057DBBC2F38462944233D01C68FD
:20678000626E606EC0F384600A68C2F312057DBBC2F38462904233D01C68A26EA06EC0F389
:2067A00084600A68C2F312057DBBC2F38462904233D01C68E26EE06EC0F384600A68C2F32F
:2067C00012057DBBC2F3846290428CD1E26E22F00042E26687E792FAA2F212B1B2FA82F243
:2067E000CBE72022C9E7026E22F000420266C6E792FAA2F212B1B2FA82F2CBE72022C9E775
:20680000626E22F000426266C6E792FAA2F212B1B2FA82F2CBE72022C9E7A26E22F00042D4
:20682000A266C6E792FAA2F212B1B2FA82F2CBE72022C9E71D680A68C2F31206002E35D104
:20684000900E013000F01F0009288CBF00200120002862D0002E38D1940E0134A40604F097
:20686000F844002E3DD1900E013000F01F070120B8400443002E42D1920E013202F01F0234
:2068800002EB4202120522438C681435500E800000F004002E58C2F304520727974026EA96
:2068A000070604FA02F232432A5038E792FAA2F048B1B0FA80F0013000F01F0009288CBFDE
:2068C00000200120C4E72020F5E792FAA2F434B1B4FA84F40134A40604F0F844C1E7202488
:2068E000F8E792FAA2F040B1B0FA80F0013000F01F00012707FA00F0BBE72020F6E792FAEC
:20690000A2F242B1B2FA82F2013202F01F0202EB42021205B7E72022F6E7CEB9940E013427
:20692000A40604F0F844FEB9900E013000F01F070120B8400443AEBB900E013000F01F003A
:2069400000EB40021E3A120542F0007222439BE792FAA2F434B1B4FA84F40134A40604F010
:20696000F844E0E72024F8E792FAA2F040B1B0FA80F0013000F01F00012707FA00F0D9E7AF
:206980002020F6E700F0FF03FFFF070000007F400000088000030450000052C7000084CBDD
:2069A0000100008092FAA2F25AB1B2FA82F0013000F01F0000EB40021E3A120542F000728D
:2069C000C4E72020F3E711F4000F7FF4B5AE1968264A914201D0002027E644F400022448A0
:2069E000816821F0E0710A438260224A126892092149A1FB0212920902EB42029200019291
:206A000002E0019A013A0192019A002AF9D100200BE611F0807F7FF493AE1968134A914226
:206A200001D0002001E644F080721148816821F0E0710A4382600020F7E511F4800F11D113
:206A400019680A4A914201D00020EEE544F480020748816821F0E0710A4382600020E4E55E
:206A60000020E2E50020E0E50220E1E5000004500003045000020020632D3E0538B503686A
:206A80009A6812F0010F3DD1044699681E4A114209D0436D43F010034365836D43F0010330
:206AA000836501202FE09A6822F0004222F03F0242F001029A60FFF757FC054604E0FFF778
:206AC00053FC431B022B11D823681A6812F0010F16D19A6812F0010FF1D19A6822F00042C1
:206AE00022F03F0242F001029A60E8E7636D43F010036365A36D43F00103A365012002E015
:206B0000002000E0002038BD3F00008003689B6813F0040F4FD170B504460E46154690F857
:206B20005030012B49D0012380F85030FFF7A6FF00283CD1636D23F4706323F0010343F49C
:206B400080736365636D13F4805F2DD0A36D23F00603A365E36C1A4ADA62E36C194A1A6375
:206B6000E36C194A5A6323681C221A60002384F850302268536843F0100353602268D36841
:206B800043F00103D36021682B4632464031E06C00F034FA2268936823F0004323F03F030E
:206BA00043F00403936070BD0023A365D2E7002384F85030F7E7022070470220F3E700BF06
:206BC0005B6500084F650008E365000838B504460268936813F0020300D00123916811F04F
:206BE000010F34D0002B34D1936803F00D03012B09D0636D43F010036365A36D43F0010329
:206C0000A365012024E0936823F0004323F03F0343F002039360236803221A60FFF7A4FBB7
:206C2000054623689B6813F0010F0ED0FFF79CFB401B0228F5D9636D43F010036365A36DBC
:206C400043F00103A365012002E0002000E0002038BD0020FCE730B583B00023019390F883
:206C60005030012B41D004460D46012380F85030FFF7ACFF80BB636D23F4885323F00203E8
:206C800043F0020363652268936823F0404323F03F0305F080452B4343F000439360236868
:206CA0009B68002B06DB636D23F0030343F00103636515E0019B01330193019BB3F5912F80
:206CC000EDD3636D23F0120343F010036365002384F85030012006E0636D43F010036365EA
:206CE000002384F8503003B030BD0220FBE70000074AD36823F4E0631B041B0C000200F4AF
:206D0000E060034343F0BF6343F40033D360704700ED00E030B4174BDB68C3F30223C3F15F
:206D20000704042C28BF04241D1D062D18D9033B4FF0FF3505FA04F421EA0401994005FA1B
:206D400003F322EA0303194300280BDB0901C9B200F1604000F5614080F8001330BC7047E7
:206D60000023E5E700F00F000901C9B2024B1954F4E700BF00ED00E014ED00E0002807DB94
:206D800000F01F02400901239340024A42F82030704700BF00E100E000280CDB00F01F0275
:206DA0004009012393402030034A42F82030BFF34F8FBFF36F8F704700E100E0BFF34F8F24
:206DC0000549CA6802F4E062044B1343CB60BFF34F8F00BFFDE700BF00ED00E00400FA0569
:206DE0000138B0F1807F0AD2064B5860064AF02182F823100020986007221A607047012034
:206E0000704700BF10E000E000ED00E070B4446C04F01C05066C0124AC40746004686360F0
:206E20008368102B05D0036899600368DA6070BC704703689A600368D960F8E7002868D023
:206E400010B403460068344A904244D8334A02443349A1FB0212120992005A64314A1A64FE
:206E6000022283F82520016821F4FF4121F070019A68DC6822431C6922435C6922439C692A
:206E80002243DC6922431C6A22430A4302609A68B2F5804F15D0196C224A914226D0224AC6
:206EA0001168586C00F01C040F20A04021EA00011160116858685C6C04F01C04A0400143C0
:206EC00011600020D863012283F8252083F824005DF8044B7047154A02441149A1FB02125A
:206EE000120992005A64124A1A64B9E7A8321168586C00F01C040F20A04021EA00011160FA
:206F0000116858685C6C04F01C04A04001431160D7E70120704700BF07040240F8FFFDBF72
:206F2000CDCCCCCC00000240A8040240F8FBFDBF0004024000284ED010B4034601680A68CD
:206F400022F001020A600168244A91422DD8244A0A442448A0FB0202120992005A64224A65
:206F60001A6400220A605A6C02F01C01186C01228A404260196C1C4A914221D01B4C22687F
:206F8000596C01F01C000F21814022EA010222600020D862186358639863D86383F8250037
:206FA00083F824005DF8044B7047114A0A440D48A0FB0202120992005A640E4A1A64D0E742
:206FC0000D4C2268596C01F01C000F21814022EA01022260DCE70120704700BF07040240D3
:206FE000F8FFFDBFCDCCCCCC00000240A8040240F8FBFDBF00040240A800024038B5044667
:2070000090F82400012832D0012084F8240094F82500C0B2012804D0002384F824300220A3
:2070200038BD022084F825000020E0632568286820F0010028602046FFF7E8FE236B5BB1A3
:207040002268136843F00E0313602268136843F0010313600020E3E72268136823F00403BC
:2070600013602268136843F00A031360EDE70220D6E790F82530DBB2022B06D00423C36378
:20708000002380F82430012070470268136823F00E0313600268136823F001031360436C8F
:2070A00003F01C03016C012202FA03F34B6080F82520002380F824301846704708B590F88B
:2070C0002530DBB2022B03D00423C363012008BD0268136823F00E0313600268136823F027
:2070E00001031360436C03F01C03016C012202FA03F34B6080F82520002380F82430836B91
:2071000013B198470020E2E70020E0E738B5036C196804682568436C03F01C0304229A4065
:207120000A4215D015F0040F12D0236813F0200F03D1236823F004032360436C03F01C02AB
:20714000016C042393404B60036B03B1984738BD02229A400A421CD015F0020F19D0236867
:2071600013F0200F06D1236823F00A032360012380F82530436C03F01C02016C02239340C2
:207180004B60002380F82430C36A002BDFD09847DDE7082202FA03F30B42D8D015F0080F7E
:2071A000D5D0236823F00E032360436C03F01C03016C012202FA03F34B60C26380F8252028
